{
  "_format": "hh-sol-artifact-1",
  "contractName": "UniqueNumberGameFactory",
  "sourceName": "contracts/UniqueNumberGameFactory.sol",
  "abi": [
    {
      "inputs": [],
      "name": "HandlesAlreadySavedForRequestID",
      "type": "error"
    },
    {
      "inputs": [],
      "name": "InvalidKMSSignatures",
      "type": "error"
    },
    {
      "inputs": [],
      "name": "NoHandleFoundForRequestID",
      "type": "error"
    },
    {
      "inputs": [],
      "name": "UnsupportedHandleType",
      "type": "error"
    },
    {
      "anonymous": false,
      "inputs": [
        {
          "indexed": true,
          "internalType": "uint256",
          "name": "requestID",
          "type": "uint256"
        }
      ],
      "name": "DecryptionFulfilled",
      "type": "event"
    },
    {
      "anonymous": false,
      "inputs": [
        {
          "indexed": true,
          "internalType": "uint256",
          "name": "gameId",
          "type": "uint256"
        },
        {
          "indexed": true,
          "internalType": "address",
          "name": "creator",
          "type": "address"
        },
        {
          "indexed": false,
          "internalType": "string",
          "name": "roomName",
          "type": "string"
        },
        {
          "indexed": false,
          "internalType": "uint256",
          "name": "entryFee",
          "type": "uint256"
        },
        {
          "indexed": false,
          "internalType": "uint32",
          "name": "maxPlayers",
          "type": "uint32"
        },
        {
          "indexed": false,
          "internalType": "uint256",
          "name": "deadline",
          "type": "uint256"
        }
      ],
      "name": "GameCreated",
      "type": "event"
    },
    {
      "anonymous": false,
      "inputs": [
        {
          "indexed": true,
          "internalType": "uint256",
          "name": "gameId",
          "type": "uint256"
        },
        {
          "indexed": false,
          "internalType": "uint256",
          "name": "totalRefundPool",
          "type": "uint256"
        }
      ],
      "name": "NoWinnerDetermined",
      "type": "event"
    },
    {
      "anonymous": false,
      "inputs": [
        {
          "indexed": true,
          "internalType": "address",
          "name": "previousOwner",
          "type": "address"
        },
        {
          "indexed": true,
          "internalType": "address",
          "name": "newOwner",
          "type": "address"
        }
      ],
      "name": "OwnershipTransferred",
      "type": "event"
    },
    {
      "anonymous": false,
      "inputs": [
        {
          "indexed": true,
          "internalType": "address",
          "name": "owner",
          "type": "address"
        },
        {
          "indexed": false,
          "internalType": "uint256",
          "name": "amount",
          "type": "uint256"
        }
      ],
      "name": "PlatformFeesWithdrawn",
      "type": "event"
    },
    {
      "anonymous": false,
      "inputs": [
        {
          "indexed": true,
          "internalType": "uint256",
          "name": "gameId",
          "type": "uint256"
        },
        {
          "indexed": true,
          "internalType": "address",
          "name": "winner",
          "type": "address"
        },
        {
          "indexed": false,
          "internalType": "uint256",
          "name": "amount",
          "type": "uint256"
        }
      ],
      "name": "PrizeClaimed",
      "type": "event"
    },
    {
      "anonymous": false,
      "inputs": [
        {
          "indexed": true,
          "internalType": "uint256",
          "name": "gameId",
          "type": "uint256"
        },
        {
          "indexed": true,
          "internalType": "address",
          "name": "player",
          "type": "address"
        },
        {
          "indexed": false,
          "internalType": "uint256",
          "name": "amount",
          "type": "uint256"
        }
      ],
      "name": "RefundClaimed",
      "type": "event"
    },
    {
      "anonymous": false,
      "inputs": [
        {
          "indexed": true,
          "internalType": "uint256",
          "name": "gameId",
          "type": "uint256"
        },
        {
          "indexed": true,
          "internalType": "address",
          "name": "player",
          "type": "address"
        },
        {
          "indexed": false,
          "internalType": "uint32",
          "name": "playerCount",
          "type": "uint32"
        }
      ],
      "name": "SubmissionReceived",
      "type": "event"
    },
    {
      "anonymous": false,
      "inputs": [
        {
          "indexed": true,
          "internalType": "uint256",
          "name": "gameId",
          "type": "uint256"
        },
        {
          "indexed": true,
          "internalType": "address",
          "name": "trigger",
          "type": "address"
        }
      ],
      "name": "WinnerCalculationStarted",
      "type": "event"
    },
    {
      "anonymous": false,
      "inputs": [
        {
          "indexed": true,
          "internalType": "uint256",
          "name": "gameId",
          "type": "uint256"
        },
        {
          "indexed": false,
          "internalType": "uint32",
          "name": "winnerNumber",
          "type": "uint32"
        },
        {
          "indexed": true,
          "internalType": "address",
          "name": "winnerAddress",
          "type": "address"
        }
      ],
      "name": "WinnerDetermined",
      "type": "event"
    },
    {
      "inputs": [],
      "name": "PERCENTAGE_BASE",
      "outputs": [
        {
          "internalType": "uint256",
          "name": "",
          "type": "uint256"
        }
      ],
      "stateMutability": "view",
      "type": "function"
    },
    {
      "inputs": [],
      "name": "REFUND_PERCENTAGE",
      "outputs": [
        {
          "internalType": "uint256",
          "name": "",
          "type": "uint256"
        }
      ],
      "stateMutability": "view",
      "type": "function"
    },
    {
      "inputs": [
        {
          "internalType": "uint256",
          "name": "requestId",
          "type": "uint256"
        },
        {
          "internalType": "uint32[]",
          "name": "decryptedNumbers",
          "type": "uint32[]"
        },
        {
          "internalType": "bytes[]",
          "name": "signatures",
          "type": "bytes[]"
        }
      ],
      "name": "callbackDecryptAllSubmissions",
      "outputs": [],
      "stateMutability": "nonpayable",
      "type": "function"
    },
    {
      "inputs": [
        {
          "internalType": "uint256",
          "name": "",
          "type": "uint256"
        },
        {
          "internalType": "uint32[]",
          "name": "",
          "type": "uint32[]"
        },
        {
          "internalType": "bytes[]",
          "name": "",
          "type": "bytes[]"
        }
      ],
      "name": "callbackDecryptPlayerSubmissions",
      "outputs": [],
      "stateMutability": "pure",
      "type": "function"
    },
    {
      "inputs": [
        {
          "internalType": "uint256",
          "name": "",
          "type": "uint256"
        },
        {
          "internalType": "uint32",
          "name": "",
          "type": "uint32"
        },
        {
          "internalType": "bytes[]",
          "name": "",
          "type": "bytes[]"
        }
      ],
      "name": "callbackDecryptWinnerIndex",
      "outputs": [],
      "stateMutability": "pure",
      "type": "function"
    },
    {
      "inputs": [
        {
          "internalType": "uint256",
          "name": "",
          "type": "uint256"
        },
        {
          "internalType": "uint32",
          "name": "",
          "type": "uint32"
        },
        {
          "internalType": "bytes[]",
          "name": "",
          "type": "bytes[]"
        }
      ],
      "name": "callbackDecryptWinnerNumber",
      "outputs": [],
      "stateMutability": "pure",
      "type": "function"
    },
    {
      "inputs": [
        {
          "internalType": "uint256",
          "name": "_gameId",
          "type": "uint256"
        },
        {
          "internalType": "address",
          "name": "_player",
          "type": "address"
        }
      ],
      "name": "canClaimRefund",
      "outputs": [
        {
          "internalType": "bool",
          "name": "",
          "type": "bool"
        }
      ],
      "stateMutability": "view",
      "type": "function"
    },
    {
      "inputs": [
        {
          "internalType": "uint256",
          "name": "gameId",
          "type": "uint256"
        }
      ],
      "name": "canFinalizeGame",
      "outputs": [
        {
          "internalType": "bool",
          "name": "",
          "type": "bool"
        }
      ],
      "stateMutability": "view",
      "type": "function"
    },
    {
      "inputs": [
        {
          "internalType": "uint256",
          "name": "_gameId",
          "type": "uint256"
        }
      ],
      "name": "claimPrize",
      "outputs": [],
      "stateMutability": "nonpayable",
      "type": "function"
    },
    {
      "inputs": [
        {
          "internalType": "uint256",
          "name": "_gameId",
          "type": "uint256"
        }
      ],
      "name": "claimRefund",
      "outputs": [],
      "stateMutability": "nonpayable",
      "type": "function"
    },
    {
      "inputs": [
        {
          "internalType": "string",
          "name": "_roomName",
          "type": "string"
        },
        {
          "internalType": "uint32",
          "name": "_minNumber",
          "type": "uint32"
        },
        {
          "internalType": "uint32",
          "name": "_maxNumber",
          "type": "uint32"
        },
        {
          "internalType": "uint32",
          "name": "_maxPlayers",
          "type": "uint32"
        },
        {
          "internalType": "uint256",
          "name": "_entryFee",
          "type": "uint256"
        },
        {
          "internalType": "uint256",
          "name": "_deadlineDuration",
          "type": "uint256"
        }
      ],
      "name": "createGame",
      "outputs": [],
      "stateMutability": "nonpayable",
      "type": "function"
    },
    {
      "inputs": [
        {
          "internalType": "uint256",
          "name": "_gameId",
          "type": "uint256"
        }
      ],
      "name": "findWinnerByDeadline",
      "outputs": [],
      "stateMutability": "nonpayable",
      "type": "function"
    },
    {
      "inputs": [],
      "name": "gameCounter",
      "outputs": [
        {
          "internalType": "uint256",
          "name": "",
          "type": "uint256"
        }
      ],
      "stateMutability": "view",
      "type": "function"
    },
    {
      "inputs": [
        {
          "internalType": "uint256",
          "name": "",
          "type": "uint256"
        },
        {
          "internalType": "uint32",
          "name": "",
          "type": "uint32"
        }
      ],
      "name": "gameCounts",
      "outputs": [
        {
          "internalType": "euint32",
          "name": "",
          "type": "bytes32"
        }
      ],
      "stateMutability": "view",
      "type": "function"
    },
    {
      "inputs": [
        {
          "internalType": "uint256",
          "name": "",
          "type": "uint256"
        },
        {
          "internalType": "uint256",
          "name": "",
          "type": "uint256"
        }
      ],
      "name": "gameEncryptedSubmissions",
      "outputs": [
        {
          "internalType": "euint32",
          "name": "",
          "type": "bytes32"
        }
      ],
      "stateMutability": "view",
      "type": "function"
    },
    {
      "inputs": [
        {
          "internalType": "uint256",
          "name": "",
          "type": "uint256"
        },
        {
          "internalType": "uint256",
          "name": "",
          "type": "uint256"
        }
      ],
      "name": "gamePlayerAddresses",
      "outputs": [
        {
          "internalType": "address",
          "name": "",
          "type": "address"
        }
      ],
      "stateMutability": "view",
      "type": "function"
    },
    {
      "inputs": [
        {
          "internalType": "uint256",
          "name": "",
          "type": "uint256"
        }
      ],
      "name": "gamePots",
      "outputs": [
        {
          "internalType": "uint256",
          "name": "",
          "type": "uint256"
        }
      ],
      "stateMutability": "view",
      "type": "function"
    },
    {
      "inputs": [
        {
          "internalType": "uint256",
          "name": "",
          "type": "uint256"
        }
      ],
      "name": "gameWinners",
      "outputs": [
        {
          "internalType": "address",
          "name": "",
          "type": "address"
        }
      ],
      "stateMutability": "view",
      "type": "function"
    },
    {
      "inputs": [
        {
          "internalType": "uint256",
          "name": "",
          "type": "uint256"
        }
      ],
      "name": "games",
      "outputs": [
        {
          "internalType": "uint256",
          "name": "gameId",
          "type": "uint256"
        },
        {
          "internalType": "address",
          "name": "creator",
          "type": "address"
        },
        {
          "internalType": "enum UniqueNumberGameFactory.GameStatus",
          "name": "status",
          "type": "uint8"
        },
        {
          "internalType": "string",
          "name": "roomName",
          "type": "string"
        },
        {
          "internalType": "uint32",
          "name": "minNumber",
          "type": "uint32"
        },
        {
          "internalType": "uint32",
          "name": "maxNumber",
          "type": "uint32"
        },
        {
          "internalType": "uint32",
          "name": "maxPlayers",
          "type": "uint32"
        },
        {
          "internalType": "uint256",
          "name": "entryFee",
          "type": "uint256"
        },
        {
          "internalType": "uint256",
          "name": "deadline",
          "type": "uint256"
        },
        {
          "internalType": "uint32",
          "name": "playerCount",
          "type": "uint32"
        },
        {
          "internalType": "euint32",
          "name": "encryptedWinner",
          "type": "bytes32"
        },
        {
          "internalType": "uint32",
          "name": "decryptedWinner",
          "type": "uint32"
        }
      ],
      "stateMutability": "view",
      "type": "function"
    },
    {
      "inputs": [],
      "name": "getActiveGames",
      "outputs": [
        {
          "components": [
            {
              "internalType": "uint256",
              "name": "gameId",
              "type": "uint256"
            },
            {
              "internalType": "address",
              "name": "creator",
              "type": "address"
            },
            {
              "internalType": "enum UniqueNumberGameFactory.GameStatus",
              "name": "status",
              "type": "uint8"
            },
            {
              "internalType": "string",
              "name": "roomName",
              "type": "string"
            },
            {
              "internalType": "uint32",
              "name": "minNumber",
              "type": "uint32"
            },
            {
              "internalType": "uint32",
              "name": "maxNumber",
              "type": "uint32"
            },
            {
              "internalType": "uint32",
              "name": "maxPlayers",
              "type": "uint32"
            },
            {
              "internalType": "uint256",
              "name": "entryFee",
              "type": "uint256"
            },
            {
              "internalType": "uint256",
              "name": "deadline",
              "type": "uint256"
            },
            {
              "internalType": "uint32",
              "name": "playerCount",
              "type": "uint32"
            },
            {
              "internalType": "euint32",
              "name": "encryptedWinner",
              "type": "bytes32"
            },
            {
              "internalType": "uint32",
              "name": "decryptedWinner",
              "type": "uint32"
            }
          ],
          "internalType": "struct UniqueNumberGameFactory.Game[]",
          "name": "",
          "type": "tuple[]"
        }
      ],
      "stateMutability": "view",
      "type": "function"
    },
    {
      "inputs": [],
      "name": "getAllGames",
      "outputs": [
        {
          "components": [
            {
              "internalType": "uint256",
              "name": "gameId",
              "type": "uint256"
            },
            {
              "internalType": "address",
              "name": "creator",
              "type": "address"
            },
            {
              "internalType": "enum UniqueNumberGameFactory.GameStatus",
              "name": "status",
              "type": "uint8"
            },
            {
              "internalType": "string",
              "name": "roomName",
              "type": "string"
            },
            {
              "internalType": "uint32",
              "name": "minNumber",
              "type": "uint32"
            },
            {
              "internalType": "uint32",
              "name": "maxNumber",
              "type": "uint32"
            },
            {
              "internalType": "uint32",
              "name": "maxPlayers",
              "type": "uint32"
            },
            {
              "internalType": "uint256",
              "name": "entryFee",
              "type": "uint256"
            },
            {
              "internalType": "uint256",
              "name": "deadline",
              "type": "uint256"
            },
            {
              "internalType": "uint32",
              "name": "playerCount",
              "type": "uint32"
            },
            {
              "internalType": "euint32",
              "name": "encryptedWinner",
              "type": "bytes32"
            },
            {
              "internalType": "uint32",
              "name": "decryptedWinner",
              "type": "uint32"
            }
          ],
          "internalType": "struct UniqueNumberGameFactory.Game[]",
          "name": "",
          "type": "tuple[]"
        }
      ],
      "stateMutability": "view",
      "type": "function"
    },
    {
      "inputs": [
        {
          "internalType": "uint256",
          "name": "gameId",
          "type": "uint256"
        }
      ],
      "name": "getGameSummary",
      "outputs": [
        {
          "components": [
            {
              "internalType": "uint256",
              "name": "gameId",
              "type": "uint256"
            },
            {
              "internalType": "string",
              "name": "roomName",
              "type": "string"
            },
            {
              "internalType": "address",
              "name": "creator",
              "type": "address"
            },
            {
              "internalType": "enum UniqueNumberGameFactory.GameStatus",
              "name": "status",
              "type": "uint8"
            },
            {
              "internalType": "uint32",
              "name": "playerCount",
              "type": "uint32"
            },
            {
              "internalType": "uint32",
              "name": "maxPlayers",
              "type": "uint32"
            },
            {
              "internalType": "uint32",
              "name": "minNumber",
              "type": "uint32"
            },
            {
              "internalType": "uint32",
              "name": "maxNumber",
              "type": "uint32"
            },
            {
              "internalType": "uint256",
              "name": "entryFee",
              "type": "uint256"
            },
            {
              "internalType": "uint256",
              "name": "deadline",
              "type": "uint256"
            },
            {
              "internalType": "uint256",
              "name": "prizePool",
              "type": "uint256"
            },
            {
              "internalType": "address",
              "name": "winner",
              "type": "address"
            },
            {
              "internalType": "uint32",
              "name": "winningNumber",
              "type": "uint32"
            }
          ],
          "internalType": "struct UniqueNumberGameFactory.GameSummary",
          "name": "",
          "type": "tuple"
        }
      ],
      "stateMutability": "view",
      "type": "function"
    },
    {
      "inputs": [
        {
          "internalType": "enum UniqueNumberGameFactory.GameStatus",
          "name": "status",
          "type": "uint8"
        }
      ],
      "name": "getGamesByStatus",
      "outputs": [
        {
          "components": [
            {
              "internalType": "uint256",
              "name": "gameId",
              "type": "uint256"
            },
            {
              "internalType": "address",
              "name": "creator",
              "type": "address"
            },
            {
              "internalType": "enum UniqueNumberGameFactory.GameStatus",
              "name": "status",
              "type": "uint8"
            },
            {
              "internalType": "string",
              "name": "roomName",
              "type": "string"
            },
            {
              "internalType": "uint32",
              "name": "minNumber",
              "type": "uint32"
            },
            {
              "internalType": "uint32",
              "name": "maxNumber",
              "type": "uint32"
            },
            {
              "internalType": "uint32",
              "name": "maxPlayers",
              "type": "uint32"
            },
            {
              "internalType": "uint256",
              "name": "entryFee",
              "type": "uint256"
            },
            {
              "internalType": "uint256",
              "name": "deadline",
              "type": "uint256"
            },
            {
              "internalType": "uint32",
              "name": "playerCount",
              "type": "uint32"
            },
            {
              "internalType": "euint32",
              "name": "encryptedWinner",
              "type": "bytes32"
            },
            {
              "internalType": "uint32",
              "name": "decryptedWinner",
              "type": "uint32"
            }
          ],
          "internalType": "struct UniqueNumberGameFactory.Game[]",
          "name": "",
          "type": "tuple[]"
        }
      ],
      "stateMutability": "view",
      "type": "function"
    },
    {
      "inputs": [
        {
          "internalType": "uint256",
          "name": "offset",
          "type": "uint256"
        },
        {
          "internalType": "uint256",
          "name": "limit",
          "type": "uint256"
        }
      ],
      "name": "getGamesWithPagination",
      "outputs": [
        {
          "components": [
            {
              "internalType": "uint256",
              "name": "gameId",
              "type": "uint256"
            },
            {
              "internalType": "address",
              "name": "creator",
              "type": "address"
            },
            {
              "internalType": "enum UniqueNumberGameFactory.GameStatus",
              "name": "status",
              "type": "uint8"
            },
            {
              "internalType": "string",
              "name": "roomName",
              "type": "string"
            },
            {
              "internalType": "uint32",
              "name": "minNumber",
              "type": "uint32"
            },
            {
              "internalType": "uint32",
              "name": "maxNumber",
              "type": "uint32"
            },
            {
              "internalType": "uint32",
              "name": "maxPlayers",
              "type": "uint32"
            },
            {
              "internalType": "uint256",
              "name": "entryFee",
              "type": "uint256"
            },
            {
              "internalType": "uint256",
              "name": "deadline",
              "type": "uint256"
            },
            {
              "internalType": "uint32",
              "name": "playerCount",
              "type": "uint32"
            },
            {
              "internalType": "euint32",
              "name": "encryptedWinner",
              "type": "bytes32"
            },
            {
              "internalType": "uint32",
              "name": "decryptedWinner",
              "type": "uint32"
            }
          ],
          "internalType": "struct UniqueNumberGameFactory.Game[]",
          "name": "",
          "type": "tuple[]"
        }
      ],
      "stateMutability": "view",
      "type": "function"
    },
    {
      "inputs": [
        {
          "internalType": "uint256",
          "name": "limit",
          "type": "uint256"
        }
      ],
      "name": "getLeaderboard",
      "outputs": [
        {
          "internalType": "address[]",
          "name": "topPlayers",
          "type": "address[]"
        },
        {
          "internalType": "uint256[]",
          "name": "winCounts",
          "type": "uint256[]"
        },
        {
          "internalType": "uint256[]",
          "name": "totalWinnings",
          "type": "uint256[]"
        }
      ],
      "stateMutability": "view",
      "type": "function"
    },
    {
      "inputs": [],
      "name": "getPlatformFees",
      "outputs": [
        {
          "internalType": "uint256",
          "name": "",
          "type": "uint256"
        }
      ],
      "stateMutability": "view",
      "type": "function"
    },
    {
      "inputs": [
        {
          "internalType": "address",
          "name": "player",
          "type": "address"
        }
      ],
      "name": "getPlayerGames",
      "outputs": [
        {
          "internalType": "uint256[]",
          "name": "",
          "type": "uint256[]"
        }
      ],
      "stateMutability": "view",
      "type": "function"
    },
    {
      "inputs": [
        {
          "internalType": "address",
          "name": "player",
          "type": "address"
        }
      ],
      "name": "getPlayerStats",
      "outputs": [
        {
          "components": [
            {
              "internalType": "uint256",
              "name": "gamesPlayed",
              "type": "uint256"
            },
            {
              "internalType": "uint256",
              "name": "gamesWon",
              "type": "uint256"
            },
            {
              "internalType": "uint256",
              "name": "totalWinnings",
              "type": "uint256"
            }
          ],
          "internalType": "struct UniqueNumberGameFactory.PlayerStats",
          "name": "",
          "type": "tuple"
        }
      ],
      "stateMutability": "view",
      "type": "function"
    },
    {
      "inputs": [],
      "name": "getTotalGamesCount",
      "outputs": [
        {
          "internalType": "uint256",
          "name": "",
          "type": "uint256"
        }
      ],
      "stateMutability": "view",
      "type": "function"
    },
    {
      "inputs": [
        {
          "internalType": "uint256",
          "name": "limit",
          "type": "uint256"
        }
      ],
      "name": "getWinnerHistory",
      "outputs": [
        {
          "components": [
            {
              "internalType": "uint256",
              "name": "gameId",
              "type": "uint256"
            },
            {
              "internalType": "string",
              "name": "roomName",
              "type": "string"
            },
            {
              "internalType": "address",
              "name": "winner",
              "type": "address"
            },
            {
              "internalType": "uint32",
              "name": "winningNumber",
              "type": "uint32"
            },
            {
              "internalType": "uint256",
              "name": "prize",
              "type": "uint256"
            },
            {
              "internalType": "uint256",
              "name": "timestamp",
              "type": "uint256"
            }
          ],
          "internalType": "struct UniqueNumberGameFactory.WinnerRecord[]",
          "name": "",
          "type": "tuple[]"
        }
      ],
      "stateMutability": "view",
      "type": "function"
    },
    {
      "inputs": [],
      "name": "getWinnerHistoryCount",
      "outputs": [
        {
          "internalType": "uint256",
          "name": "",
          "type": "uint256"
        }
      ],
      "stateMutability": "view",
      "type": "function"
    },
    {
      "inputs": [
        {
          "internalType": "uint256",
          "name": "",
          "type": "uint256"
        },
        {
          "internalType": "address",
          "name": "",
          "type": "address"
        }
      ],
      "name": "hasClaimedRefund",
      "outputs": [
        {
          "internalType": "bool",
          "name": "",
          "type": "bool"
        }
      ],
      "stateMutability": "view",
      "type": "function"
    },
    {
      "inputs": [
        {
          "internalType": "uint256",
          "name": "",
          "type": "uint256"
        },
        {
          "internalType": "address",
          "name": "",
          "type": "address"
        }
      ],
      "name": "hasPlayerClaimed",
      "outputs": [
        {
          "internalType": "bool",
          "name": "",
          "type": "bool"
        }
      ],
      "stateMutability": "view",
      "type": "function"
    },
    {
      "inputs": [
        {
          "internalType": "uint256",
          "name": "",
          "type": "uint256"
        },
        {
          "internalType": "address",
          "name": "",
          "type": "address"
        }
      ],
      "name": "hasPlayerSubmitted",
      "outputs": [
        {
          "internalType": "bool",
          "name": "",
          "type": "bool"
        }
      ],
      "stateMutability": "view",
      "type": "function"
    },
    {
      "inputs": [],
      "name": "owner",
      "outputs": [
        {
          "internalType": "address",
          "name": "",
          "type": "address"
        }
      ],
      "stateMutability": "view",
      "type": "function"
    },
    {
      "inputs": [],
      "name": "platformFees",
      "outputs": [
        {
          "internalType": "uint256",
          "name": "",
          "type": "uint256"
        }
      ],
      "stateMutability": "view",
      "type": "function"
    },
    {
      "inputs": [
        {
          "internalType": "uint256",
          "name": "_gameId",
          "type": "uint256"
        },
        {
          "internalType": "externalEuint32",
          "name": "_encryptedNumber",
          "type": "bytes32"
        },
        {
          "internalType": "bytes",
          "name": "inputProof",
          "type": "bytes"
        }
      ],
      "name": "submitNumber",
      "outputs": [],
      "stateMutability": "payable",
      "type": "function"
    },
    {
      "inputs": [
        {
          "internalType": "address",
          "name": "newOwner",
          "type": "address"
        }
      ],
      "name": "transferOwnership",
      "outputs": [],
      "stateMutability": "nonpayable",
      "type": "function"
    },
    {
      "inputs": [
        {
          "internalType": "uint256",
          "name": "",
          "type": "uint256"
        }
      ],
      "name": "winnerHistory",
      "outputs": [
        {
          "internalType": "uint256",
          "name": "gameId",
          "type": "uint256"
        },
        {
          "internalType": "string",
          "name": "roomName",
          "type": "string"
        },
        {
          "internalType": "address",
          "name": "winner",
          "type": "address"
        },
        {
          "internalType": "uint32",
          "name": "winningNumber",
          "type": "uint32"
        },
        {
          "internalType": "uint256",
          "name": "prize",
          "type": "uint256"
        },
        {
          "internalType": "uint256",
          "name": "timestamp",
          "type": "uint256"
        }
      ],
      "stateMutability": "view",
      "type": "function"
    },
    {
      "inputs": [],
      "name": "withdrawPlatformFees",
      "outputs": [],
      "stateMutability": "nonpayable",
      "type": "function"
    }
  ],
  "bytecode": "0x608060405234801562000010575f80fd5b506200018d620000b1604080516080810182525f80825260208201819052918101829052606081019190915250604080516080810182527350157cffd6bbfa2dece204a89ec419c23ef5755d815273cd3ab3bd6bcc0c0bf3e27912a92043e817b1cf696020820152731364cbbf2cdf5032c47d8226a6f6fbd2afcdacac9181019190915273901f8942346f7ab3a01f6d7613119bca447bb030606082015290565b80517fed8d60e34876f751cc8b014c560745351147d9de11b9347c854e881b128ea60080546001600160a01b03199081166001600160a01b039384161790915560208301517fed8d60e34876f751cc8b014c560745351147d9de11b9347c854e881b128ea6018054831691841691909117905560408301517fed8d60e34876f751cc8b014c560745351147d9de11b9347c854e881b128ea6028054831691841691909117905560608301517fed8d60e34876f751cc8b014c560745351147d9de11b9347c854e881b128ea6038054909216921691909117905550565b7f5ea69329017273582817d320489fbd94f775580e90c092699ca6f3d12fdf7d00805473a02cda4ca3a71d7c46997716f4283aa851c288126001600160a01b0319918216179091555f8054339216821781556040517f8be0079c531659141344cd1fd0a4f28419497f9722a3daafe3b4186f6b6457e0908290a361553480620002155f395ff3fe6080604052600436106102ab575f3560e01c806387c1394311610165578063d04397dc116100c6578063e1ef336d1161007c578063ee43a8fb11610062578063ee43a8fb146107c9578063f12b6d2e146107e8578063f2fde38b14610821575f80fd5b8063e1ef336d14610795578063eb3690e9146107b4575f80fd5b8063d34e4b20116100ac578063d34e4b2014610736578063d709815414610762578063db1c45f914610781575f80fd5b8063d04397dc14610424578063d0b7830b14610722575f80fd5b8063b154afc31161011b578063b736cadd11610101578063b736cadd146106ca578063bbc6f134146106e4578063c7c77bba14610703575f80fd5b8063b154afc314610672578063b19db75f146106ab575f80fd5b8063a34b46fe1161014b578063a34b46fe146105e2578063aa8de56c14610610578063af8ada5d14610646575f80fd5b806387c13943146105b15780638da5cb5b146105c6575f80fd5b80633e2957561161020f5780635b7baf64116101c55780637bdd449c116101ab5780637bdd449c146105325780637befbefc1461057e57806381159cc61461059d575f80fd5b80635b7baf64146104e257806375964b5514610501575f80fd5b80634198b15c116101f55780634198b15c146104625780634fd66eae1461048d57806355237200146104ce575f80fd5b80633e295756146104245780633e99f19f14610443575f80fd5b80631b589d09116102645780632093f0871161024a5780632093f087146103dc57806322b8d878146103fb5780632e0be39a1461040f575f80fd5b80631b589d091461039c5780631b76929c146103bb575f80fd5b8063129daf8411610294578063129daf8414610304578063194a4e7e146103305780631a318be514610353575f80fd5b80630d60767a146102af578063117a5b90146102c4575b5f80fd5b6102c26102bd3660046147f2565b610840565b005b3480156102cf575f80fd5b506102e36102de366004614841565b610c5e565b6040516102fb9c9b9a999897969594939291906148c3565b60405180910390f35b34801561030f575f80fd5b5061032361031e366004614966565b610d63565b6040516102fb91906149b9565b34801561033b575f80fd5b50610345600d5481565b6040519081526020016102fb565b34801561035e575f80fd5b5061038c61036d3660046149cb565b600c60209081525f928352604080842090915290825290205460ff1681565b60405190151581526020016102fb565b3480156103a7575f80fd5b5061038c6103b6366004614841565b610e6e565b3480156103c6575f80fd5b506103cf610f41565b6040516102fb91906149f5565b3480156103e7575f80fd5b506103cf6103f6366004614b06565b611224565b348015610406575f80fd5b50600a54610345565b34801561041a575f80fd5b5061034560015481565b34801561042f575f80fd5b506102c261043e366004614c81565b6114f7565b34801561044e575f80fd5b506102c261045d366004614841565b611565565b34801561046d575f80fd5b5061034561047c366004614841565b60076020525f908152604090205481565b348015610498575f80fd5b506104ac6104a7366004614966565b6116a4565b60408051825181526020808401519082015291810151908201526060016102fb565b3480156104d9575f80fd5b50600d54610345565b3480156104ed575f80fd5b506102c26104fc366004614841565b6117c5565b34801561050c575f80fd5b5061052061051b366004614841565b611ac3565b6040516102fb96959493929190614cd4565b34801561053d575f80fd5b5061056661054c366004614841565b60086020525f90815260409020546001600160a01b031681565b6040516001600160a01b0390911681526020016102fb565b348015610589575f80fd5b5061038c6105983660046149cb565b611ba2565b3480156105a8575f80fd5b50600154610345565b3480156105bc575f80fd5b5061034561271081565b3480156105d1575f80fd5b505f546001600160a01b0316610566565b3480156105ed575f80fd5b506106016105fc366004614841565b611c56565b6040516102fb93929190614d20565b34801561061b575f80fd5b5061034561062a366004614d8b565b600360209081525f928352604080842090915290825290205481565b348015610651575f80fd5b50610665610660366004614841565b6122b2565b6040516102fb9190614dac565b34801561067d575f80fd5b5061038c61068c3660046149cb565b600b60209081525f928352604080842090915290825290205460ff1681565b3480156106b6575f80fd5b506103456106c5366004614b06565b612492565b3480156106d5575f80fd5b506102c261043e366004614eab565b3480156106ef575f80fd5b506103cf6106fe366004614f65565b6124bd565b34801561070e575f80fd5b5061056661071d366004614b06565b6127b9565b34801561072d575f80fd5b506102c26127ed565b348015610741575f80fd5b50610755610750366004614841565b61297e565b6040516102fb9190614f83565b34801561076d575f80fd5b506102c261077c366004614841565b612b7d565b34801561078c575f80fd5b506103cf612ddd565b3480156107a0575f80fd5b506102c26107af366004614eab565b613027565b3480156107bf575f80fd5b5061034561232881565b3480156107d4575f80fd5b506102c26107e3366004615023565b61368c565b3480156107f3575f80fd5b5061038c6108023660046149cb565b600660209081525f928352604080842090915290825290205460ff1681565b34801561082c575f80fd5b506102c261083b366004614966565b6139b8565b5f848152600260205260408120906001820154600160a01b900460ff16600381111561086e5761086e614858565b146108c05760405162461bcd60e51b815260206004820152601060248201527f47616d65206973206e6f74206f70656e0000000000000000000000000000000060448201526064015b60405180910390fd5b806005015442106109135760405162461bcd60e51b815260206004820152601860248201527f47616d65206861732070617373656420646561646c696e65000000000000000060448201526064016108b7565b806004015434146109665760405162461bcd60e51b815260206004820152601360248201527f496e636f727265637420656e747279206665650000000000000000000000000060448201526064016108b7565b5f85815260066020908152604080832033845290915290205460ff16156109cf5760405162461bcd60e51b815260206004820152601c60248201527f506c617965722068617320616c7265616479207375626d69747465640000000060448201526064016108b7565b60068101805463ffffffff16905f6109e6836150ba565b825463ffffffff9182166101009390930a9283029190920219909116179055505f8581526006602090815260408083203384528252808320805460ff19166001179055878352600790915281208054349290610a439084906150dc565b925050819055505f610a8a8585858080601f0160208091040260200160405190810160405280939291908181526020018383808284375f92019190915250613b0292505050565b9050610a9581613b0f565b505f86815260046020908152604080832080546001818101835591855283852001805473ffffffffffffffffffffffffffffffffffffffff19163317905589845260058352908320805491820181558352912001819055600382015463ffffffff165b600383015463ffffffff640100000000909104811690821611610be9575f610b1f82613b1e565b9050610b2a81613b0f565b505f610b368483613b30565b90505f610b436001613b1e565b90505f610b4f5f613b1e565b9050610b5a82613b0f565b50610b6481613b0f565b505f610b71848484613b5e565b9050610b7c81613b0f565b505f8c815260036020908152604080832063ffffffff8a168452909152902054610ba69082613b6a565b5f8d815260036020908152604080832063ffffffff8b1684529091529020819055610bd090613b0f565b5050505050508080610be1906150ba565b915050610af8565b50600682015460405163ffffffff9091168152339087907f443120c0315da5852a69180cb52de553803c3fcc68503410b8bf2b1a7431b0099060200160405180910390a36003820154600683015463ffffffff600160401b9092048216911603610c5657610c5686613b98565b505050505050565b600260208190525f918252604090912080546001820154928201805491936001600160a01b03811693600160a01b90910460ff1692909190610c9f906150ef565b80601f0160208091040260200160405190810160405280929190818152602001828054610ccb906150ef565b8015610d165780601f10610ced57610100808354040283529160200191610d16565b820191905f5260205f20905b815481529060010190602001808311610cf957829003601f168201915b5050505060038301546004840154600585015460068601546007870154600890970154959663ffffffff80861697640100000000870482169750600160401b90960481169592811692168c565b60605f805b600154811015610db2575f8181526006602090815260408083206001600160a01b038816845290915290205460ff1615610daa5781610da681615121565b9250505b600101610d68565b505f8167ffffffffffffffff811115610dcd57610dcd614b39565b604051908082528060200260200182016040528015610df6578160200160208202803683370190505b5090505f805b600154811015610e64575f8181526006602090815260408083206001600160a01b038a16845290915290205460ff1615610e5c5780838381518110610e4357610e43615139565b602090810291909101015281610e5881615121565b9250505b600101610dfc565b5090949350505050565b5f6001548210610ec05760405162461bcd60e51b815260206004820152601360248201527f47616d6520646f6573206e6f742065786973740000000000000000000000000060448201526064016108b7565b5f828152600260205260408120906001820154600160a01b900460ff166003811115610eee57610eee614858565b14610efb57505f92915050565b6003810154600682015463ffffffff908116600160401b909204161480610f3a575080600501544210158015610f3a5750600681015463ffffffff1615155b9392505050565b60605f805b600154811015610f98575f8082815260026020526040902060010154600160a01b900460ff166003811115610f7d57610f7d614858565b03610f905781610f8c81615121565b9250505b600101610f46565b505f8167ffffffffffffffff811115610fb357610fb3614b39565b60405190808252806020026020018201604052801561103f57816020015b60408051610180810182525f80825260208083018290529282018190526060808301526080820181905260a0820181905260c0820181905260e0820181905261010082018190526101208201819052610140820181905261016082015282525f19909201910181610fd15790505b5090505f805b60015481101561121b575f8082815260026020526040902060010154600160a01b900460ff16600381111561107c5761107c614858565b03611213575f818152600260209081526040918290208251610180810184528154815260018201546001600160a01b0381169382019390935292909190830190600160a01b900460ff1660038111156110d7576110d7614858565b60038111156110e8576110e8614858565b81526020016002820180546110fc906150ef565b80601f0160208091040260200160405190810160405280929190818152602001828054611128906150ef565b80156111735780601f1061114a57610100808354040283529160200191611173565b820191905f5260205f20905b81548152906001019060200180831161115657829003601f168201915b5050509183525050600382015463ffffffff8082166020840152640100000000820481166040840152600160401b9091048116606083015260048301546080830152600583015460a08301526006830154811660c0830152600783015460e08301526008909201549091166101009091015283518490849081106111f9576111f9615139565b6020026020010181905250818061120f90615121565b9250505b600101611045565b50909392505050565b606060015483106112775760405162461bcd60e51b815260206004820152601960248201527f4f666673657420657863656564732067616d6520636f756e740000000000000060448201526064016108b7565b5f61128283856150dc565b905060015481111561129357506001545b5f61129e858361514d565b90505f8167ffffffffffffffff8111156112ba576112ba614b39565b60405190808252806020026020018201604052801561134657816020015b60408051610180810182525f80825260208083018290529282018190526060808301526080820181905260a0820181905260c0820181905260e0820181905261010082018190526101208201819052610140820181905261016082015282525f199092019101816112d85790505b5090505f5b828110156114eb5760025f611360838a6150dc565b815260208082019290925260409081015f208151610180810183528154815260018201546001600160a01b03811694820194909452929091830190600160a01b900460ff1660038111156113b6576113b6614858565b60038111156113c7576113c7614858565b81526020016002820180546113db906150ef565b80601f0160208091040260200160405190810160405280929190818152602001828054611407906150ef565b80156114525780601f1061142957610100808354040283529160200191611452565b820191905f5260205f20905b81548152906001019060200180831161143557829003601f168201915b5050509183525050600382015463ffffffff8082166020840152640100000000820481166040840152600160401b9091048116606083015260048301546080830152600583015460a08301526006830154811660c0830152600783015460e08301526008909201549091166101009091015282518390839081106114d8576114d8615139565b602090810291909101015260010161134b565b50925050505b92915050565b60405162461bcd60e51b815260206004820152603e60248201527f546869732063616c6c6261636b20697320646570726563617465642c2075736560448201527f2063616c6c6261636b44656372797074416c6c5375626d697373696f6e73000060648201526084016108b7565b5f818152600260205260408120906001820154600160a01b900460ff16600381111561159357611593614858565b146115ec5760405162461bcd60e51b8152602060048201526024808201527f47616d65206973206e6f74206f70656e206f7220616c72656164792066696e696044820152631cda195960e21b60648201526084016108b7565b80600501544210156116405760405162461bcd60e51b815260206004820152601b60248201527f446561646c696e6520686173206e6f742070617373656420796574000000000060448201526064016108b7565b600681015463ffffffff166116975760405162461bcd60e51b815260206004820152601660248201527f4e6f20706c617965727320696e207468652067616d650000000000000000000060448201526064016108b7565b6116a082613b98565b5050565b6116c560405180606001604052805f81526020015f81526020015f81525090565b5f805f805b600154811015611714575f8181526006602090815260408083206001600160a01b038a16845290915290205460ff161561170c578361170881615121565b9450505b6001016116ca565b505f5b600a548110156117a557856001600160a01b0316600a828154811061173e5761173e615139565b5f9182526020909120600260059092020101546001600160a01b03160361179d578261176981615121565b935050600a818154811061177f5761177f615139565b905f5260205f209060050201600301548261179a91906150dc565b91505b600101611717565b506040805160608101825293845260208401929092529082015292915050565b5f818152600260208190526040909120906001820154600160a01b900460ff1660038111156117f6576117f6614858565b146118435760405162461bcd60e51b815260206004820152601860248201527f47616d65206973206e6f742066696e697368656420796574000000000000000060448201526064016108b7565b5f828152600860205260409020546001600160a01b0316156118cd5760405162461bcd60e51b815260206004820152602660248201527f47616d652068617320612077696e6e65722c206e6f20726566756e642061766160448201527f696c61626c65000000000000000000000000000000000000000000000000000060648201526084016108b7565b5f82815260066020908152604080832033845290915290205460ff166119415760405162461bcd60e51b8152602060048201526024808201527f596f7520646964206e6f7420706172746963697061746520696e20746869732060448201526367616d6560e01b60648201526084016108b7565b5f828152600b6020908152604080832033845290915290205460ff16156119aa5760405162461bcd60e51b815260206004820152601660248201527f526566756e6420616c726561647920636c61696d65640000000000000000000060448201526064016108b7565b5f828152600b602090815260408083203384529091528120805460ff191660011790556004820154612710906119e39061232890615160565b6119ed9190615177565b6040519091505f90339083908381818185875af1925050503d805f8114611a2f576040519150601f19603f3d011682016040523d82523d5f602084013e611a34565b606091505b5050905080611a855760405162461bcd60e51b815260206004820152601560248201527f4661696c656420746f2073656e6420726566756e64000000000000000000000060448201526064016108b7565b604051828152339085907ff3f402280ef0a7905e124aa621b65eaeb2725c343e8b36d398ed78c29daf285c906020015b60405180910390a350505050565b600a8181548110611ad2575f80fd5b5f9182526020909120600590910201805460018201805491935090611af6906150ef565b80601f0160208091040260200160405190810160405280929190818152602001828054611b22906150ef565b8015611b6d5780601f10611b4457610100808354040283529160200191611b6d565b820191905f5260205f20905b815481529060010190602001808311611b5057829003601f168201915b505050506002830154600384015460049094015492936001600160a01b03821693600160a01b90920463ffffffff1692509086565b5f8281526002602081905260408220906001820154600160a01b900460ff166003811115611bd257611bd2614858565b148015611bf357505f848152600860205260409020546001600160a01b0316155b8015611c2057505f8481526006602090815260408083206001600160a01b038716845290915290205460ff165b8015611c4e57505f848152600b602090815260408083206001600160a01b038716845290915290205460ff16155b949350505050565b60608060605f600a8054905067ffffffffffffffff811115611c7a57611c7a614b39565b604051908082528060200260200182016040528015611ca3578160200160208202803683370190505b50600a549091505f9067ffffffffffffffff811115611cc457611cc4614b39565b604051908082528060200260200182016040528015611ced578160200160208202803683370190505b50600a549091505f9067ffffffffffffffff811115611d0e57611d0e614b39565b604051908082528060200260200182016040528015611d37578160200160208202803683370190505b5090505f805b600a54811015611ef8575f600a8281548110611d5b57611d5b615139565b5f91825260208220600260059092020101546001600160a01b0316915080805b85811015611dc957836001600160a01b0316898281518110611d9f57611d9f615139565b60200260200101516001600160a01b031603611dc15760019250809150611dc9565b600101611d7b565b508115611e4c57868181518110611de257611de2615139565b602002602001018051809190611df790615121565b81525050600a8481548110611e0e57611e0e615139565b905f5260205f20906005020160030154868281518110611e3057611e30615139565b60200260200101818151611e4491906150dc565b905250611eed565b82888681518110611e5f57611e5f615139565b60200260200101906001600160a01b031690816001600160a01b0316815250506001878681518110611e9357611e93615139565b602002602001018181525050600a8481548110611eb257611eb2615139565b905f5260205f20906005020160030154868681518110611ed457611ed4615139565b602090810291909101015284611ee981615121565b9550505b505050600101611d3d565b505f881580611f0657508189115b611f105788611f12565b815b90508067ffffffffffffffff811115611f2d57611f2d614b39565b604051908082528060200260200182016040528015611f56578160200160208202803683370190505b5097508067ffffffffffffffff811115611f7257611f72614b39565b604051908082528060200260200182016040528015611f9b578160200160208202803683370190505b5096508067ffffffffffffffff811115611fb757611fb7614b39565b604051908082528060200260200182016040528015611fe0578160200160208202803683370190505b5095505f5b828110156121d7575f611ff98260016150dc565b90505b838110156121ce5785818151811061201657612016615139565b602002602001015186838151811061203057612030615139565b602002602001015110156121c6575f87838151811061205157612051615139565b6020026020010151905087828151811061206d5761206d615139565b602002602001015188848151811061208757612087615139565b60200260200101906001600160a01b031690816001600160a01b031681525050808883815181106120ba576120ba615139565b60200260200101906001600160a01b031690816001600160a01b0316815250505f8784815181106120ed576120ed615139565b6020026020010151905087838151811061210957612109615139565b602002602001015188858151811061212357612123615139565b6020026020010181815250508088848151811061214257612142615139565b6020026020010181815250505f87858151811061216157612161615139565b6020026020010151905087848151811061217d5761217d615139565b602002602001015188868151811061219757612197615139565b602002602001018181525050808885815181106121b6576121b6615139565b6020026020010181815250505050505b600101611ffc565b50600101611fe5565b505f5b818110156122a5578581815181106121f4576121f4615139565b602002602001015189828151811061220e5761220e615139565b60200260200101906001600160a01b031690816001600160a01b03168152505084818151811061224057612240615139565b602002602001015188828151811061225a5761225a615139565b60200260200101818152505083818151811061227857612278615139565b602002602001015187828151811061229257612292615139565b60209081029190910101526001016121da565b5050505050509193909250565b6122ba6146d9565b600154821061230b5760405162461bcd60e51b815260206004820152601360248201527f47616d6520646f6573206e6f742065786973740000000000000000000000000060448201526064016108b7565b5f60025f8481526020019081526020015f209050604051806101a00160405280825f01548152602001826002018054612343906150ef565b80601f016020809104026020016040519081016040528092919081815260200182805461236f906150ef565b80156123ba5780601f10612391576101008083540402835291602001916123ba565b820191905f5260205f20905b81548152906001019060200180831161239d57829003601f168201915b505050918352505060018301546001600160a01b0381166020830152604090910190600160a01b900460ff1660038111156123f7576123f7614858565b8152600683015463ffffffff9081166020808401919091526003850154600160401b81048316604080860191909152818416606086015264010000000090910483166080850152600486015460a0850152600586015460c08501525f888152600783528181205460e0860152978852600891829052909620546001600160a01b03166101008301529490920154909316610120909101525090565b6005602052815f5260405f2081815481106124ab575f80fd5b905f5260205f20015f91509150505481565b60605f805b600154811015612525578360038111156124de576124de614858565b5f82815260026020526040902060010154600160a01b900460ff16600381111561250a5761250a614858565b0361251d578161251981615121565b9250505b6001016124c2565b505f8167ffffffffffffffff81111561254057612540614b39565b6040519080825280602002602001820160405280156125cc57816020015b60408051610180810182525f80825260208083018290529282018190526060808301526080820181905260a0820181905260c0820181905260e0820181905261010082018190526101208201819052610140820181905261016082015282525f1990920191018161255e5790505b5090505f805b600154811015610e64578560038111156125ee576125ee614858565b5f82815260026020526040902060010154600160a01b900460ff16600381111561261a5761261a614858565b036127b1575f818152600260209081526040918290208251610180810184528154815260018201546001600160a01b0381169382019390935292909190830190600160a01b900460ff16600381111561267557612675614858565b600381111561268657612686614858565b815260200160028201805461269a906150ef565b80601f01602080910402602001604051908101604052809291908181526020018280546126c6906150ef565b80156127115780601f106126e857610100808354040283529160200191612711565b820191905f5260205f20905b8154815290600101906020018083116126f457829003601f168201915b5050509183525050600382015463ffffffff8082166020840152640100000000820481166040840152600160401b9091048116606083015260048301546080830152600583015460a08301526006830154811660c0830152600783015460e083015260089092015490911661010090910152835184908490811061279757612797615139565b602002602001018190525081806127ad90615121565b9250505b6001016125d2565b6004602052815f5260405f2081815481106127d2575f80fd5b5f918252602090912001546001600160a01b03169150829050565b336127ff5f546001600160a01b031690565b6001600160a01b0316146128555760405162461bcd60e51b815260206004820181905260248201527f4f776e61626c653a2063616c6c6572206973206e6f7420746865206f776e657260448201526064016108b7565b5f600d54116128a65760405162461bcd60e51b815260206004820152601c60248201527f4e6f20706c6174666f726d206665657320746f2077697468647261770000000060448201526064016108b7565b600d80545f91829055604051909190339083908381818185875af1925050503d805f81146128ef576040519150601f19603f3d011682016040523d82523d5f602084013e6128f4565b606091505b50509050806129455760405162461bcd60e51b815260206004820181905260248201527f4661696c656420746f20776974686472617720706c6174666f726d206665657360448201526064016108b7565b60405182815233907ffc7ad544ff6a06d6499925723d25b6fe70457a42939995b1d3d6f560fe3363339060200160405180910390a25050565b600a546060905f83158061299157508184115b61299b578361299d565b815b90505f8167ffffffffffffffff8111156129b9576129b9614b39565b604051908082528060200260200182016040528015612a2d57816020015b612a1a6040518060c001604052805f8152602001606081526020015f6001600160a01b031681526020015f63ffffffff1681526020015f81526020015f81525090565b8152602001906001900390816129d75790505b5090505f5b82811015612b7457600a81612a4860018761514d565b612a52919061514d565b81548110612a6257612a62615139565b905f5260205f2090600502016040518060c00160405290815f8201548152602001600182018054612a92906150ef565b80601f0160208091040260200160405190810160405280929190818152602001828054612abe906150ef565b8015612b095780601f10612ae057610100808354040283529160200191612b09565b820191905f5260205f20905b815481529060010190602001808311612aec57829003601f168201915b505050918352505060028201546001600160a01b0381166020830152600160a01b900463ffffffff166040820152600382015460608201526004909101546080909101528251839083908110612b6157612b61615139565b6020908102919091010152600101612a32565b50949350505050565b5f818152600260208190526040909120906001820154600160a01b900460ff166003811115612bae57612bae614858565b14612bfb5760405162461bcd60e51b815260206004820152601860248201527f47616d65206973206e6f742066696e697368656420796574000000000000000060448201526064016108b7565b5f828152600860205260409020546001600160a01b03163314612c605760405162461bcd60e51b815260206004820152601660248201527f596f7520617265206e6f74207468652077696e6e65720000000000000000000060448201526064016108b7565b5f8281526007602052604090205480612cc55760405162461bcd60e51b815260206004820152602160248201527f5072697a6520616c726561647920636c61696d6564206f72206e6f207072697a6044820152606560f81b60648201526084016108b7565b5f8381526007602090815260408083208390556001858101805460ff60a01b191674030000000000000000000000000000000000000000179055600c8352818420338086529352818420805460ff191690911790555183908381818185875af1925050503d805f8114612d53576040519150601f19603f3d011682016040523d82523d5f602084013e612d58565b606091505b5050905080612da95760405162461bcd60e51b815260206004820152601460248201527f4661696c656420746f2073656e64207072697a6500000000000000000000000060448201526064016108b7565b604051828152339085907f4aa95f981a8337cb337de335b965507da0879c3b49f799d20058e913f5ad2c2690602001611ab5565b60605f60015467ffffffffffffffff811115612dfb57612dfb614b39565b604051908082528060200260200182016040528015612e8757816020015b60408051610180810182525f80825260208083018290529282018190526060808301526080820181905260a0820181905260c0820181905260e0820181905261010082018190526101208201819052610140820181905261016082015282525f19909201910181612e195790505b5090505f5b600154811015613021575f818152600260209081526040918290208251610180810184528154815260018201546001600160a01b0381169382019390935292909190830190600160a01b900460ff166003811115612eec57612eec614858565b6003811115612efd57612efd614858565b8152602001600282018054612f11906150ef565b80601f0160208091040260200160405190810160405280929190818152602001828054612f3d906150ef565b8015612f885780601f10612f5f57610100808354040283529160200191612f88565b820191905f5260205f20905b815481529060010190602001808311612f6b57829003601f168201915b5050509183525050600382015463ffffffff8082166020840152640100000000820481166040840152600160401b9091048116606083015260048301546080830152600583015460a08301526006830154811660c0830152600783015460e083015260089092015490911661010090910152825183908390811061300e5761300e615139565b6020908102919091010152600101612e8c565b50919050565b6130318382613d37565b5f838152600960205260409020548015158061304b575080155b6130975760405162461bcd60e51b815260206004820152601260248201527f496e76616c69642072657175657374204944000000000000000000000000000060448201526064016108b7565b5f818152600260208181526040808420888552600990925283209290925560018201805460ff60a01b1916600160a01b8302179055505f805f865167ffffffffffffffff8111156130ea576130ea614b39565b604051908082528060200260200182016040528015613113578160200160208202803683370190505b5090505f80885167ffffffffffffffff81111561313257613132614b39565b60405190808252806020026020018201604052801561315b578160200160208202803683370190505b5090505f5b89518163ffffffff1610156132a457818163ffffffff168151811061318757613187615139565b6020026020010151613292575f8a8263ffffffff16815181106131ac576131ac615139565b602002602001015190505f805b8c518163ffffffff161015613244578263ffffffff168d8263ffffffff16815181106131e7576131e7615139565b602002602001015163ffffffff16036132325781613204816150ba565b9250506001858263ffffffff168151811061322157613221615139565b911515602092830291909101909101525b8061323c816150ba565b9150506131b9565b508063ffffffff1660010361328f5781868663ffffffff168151811061326c5761326c615139565b63ffffffff909216602092830291909101909101528461328b816150ba565b9550505b50505b8061329c816150ba565b915050613160565b5063ffffffff8216156133e4575f835f815181106132c4576132c4615139565b602002602001015190505f600190505b8363ffffffff168163ffffffff161015613346578163ffffffff16858263ffffffff168151811061330757613307615139565b602002602001015163ffffffff16101561333e57848163ffffffff168151811061333357613333615139565b602002602001015191505b6001016132d4565b505f5b8a518163ffffffff1610156133e1578163ffffffff168b8263ffffffff168151811061337757613377615139565b602002602001015163ffffffff16036133cf575f898152600460205260409020805463ffffffff83169081106133af576133af615139565b5f918252602090912001546001600160a01b0316965090945084906133e1565b806133d9816150ba565b915050613349565b50505b60088601805463ffffffff191663ffffffff86161790556001600160a01b038516156135fe575f87815260086020908152604091829020805473ffffffffffffffffffffffffffffffffffffffff19166001600160a01b038916179055815160c08101909252888252600288018054600a939283019190613464906150ef565b80601f0160208091040260200160405190810160405280929190818152602001828054613490906150ef565b80156134db5780601f106134b2576101008083540402835291602001916134db565b820191905f5260205f20905b8154815290600101906020018083116134be57829003601f168201915b50505091835250506001600160a01b03881660208083019190915263ffffffff88166040808401919091525f8c81526007835290812054606084015242608090930192909252835460018181018655948352918190208351600590930201918255820151919290919082019061355190826151df565b5060408281015160028301805460608601516001600160a01b039384167fffffffffffffffff00000000000000000000000000000000000000000000000090921691909117600160a01b63ffffffff92831602179091556080850151600385015560a09094015160049093019290925551918616825286169088907f120eba8992697e6399d4d9bd8dcbf623fa400caba3e655718c4755d58e0f2d149060200160405180910390a3613680565b5f878152600760205260408120549061271061361c6123288261514d565b6136269084615160565b6136309190615177565b905080600d5f82825461364391906150dc565b909155505060405182815289907f5332b1143b00c1079d93e2e55a9064dd21c411e05db2bb9ec6d3aa1d0cb068249060200160405180910390a250505b50505050505050505050565b851580159061369c575060408611155b6136e85760405162461bcd60e51b815260206004820152601860248201527f496e76616c696420726f6f6d206e616d65206c656e677468000000000000000060448201526064016108b7565b5f8563ffffffff1611801561370857508463ffffffff168463ffffffff16115b6137545760405162461bcd60e51b815260206004820152601460248201527f496e76616c6964206e756d6265722072616e676500000000000000000000000060448201526064016108b7565b60018363ffffffff16116137aa5760405162461bcd60e51b815260206004820152601e60248201527f4d617820706c6179657273206d757374206265206174206c656173742032000060448201526064016108b7565b6101006137b7868661529b565b63ffffffff16106138165760405162461bcd60e51b8152602060048201526024808201527f52616e676520697320746f6f206c6172676520666f7220656666696369656e746044820152632046484560e01b60648201526084016108b7565b600180549081905f61382783615121565b90915550505f8181526002602081905260409091208281556001810180547fffffffffffffffffffffff0000000000000000000000000000000000000000001660ff60a01b193316179055908101613880898b836152bf565b5060038101805463ffffffff878116600160401b026bffffffff0000000000000000198a83166401000000000267ffffffffffffffff19909416928c16929092179290921716179055600481018490556138da83426150dc565b60058201556138f26138ed876001615379565b613b1e565b6007820181905561390290613b0f565b50865b8663ffffffff168163ffffffff161161395e576139215f613b1e565b5f84815260036020908152604080832063ffffffff86168452909152902081905561394b90613b0f565b5080613956816150ba565b915050613905565b50336001600160a01b0316827f8b85e7bc59d35abbdb65efe36cd2f316a8d448bd4d71bd2a13d3a792e93785bc8b8b888a87600501546040516139a5959493929190615396565b60405180910390a3505050505050505050565b336139ca5f546001600160a01b031690565b6001600160a01b031614613a205760405162461bcd60e51b815260206004820181905260248201527f4f776e61626c653a2063616c6c6572206973206e6f7420746865206f776e657260448201526064016108b7565b6001600160a01b038116613a9c5760405162461bcd60e51b815260206004820152602660248201527f4f776e61626c653a206e6577206f776e657220697320746865207a65726f206160448201527f646472657373000000000000000000000000000000000000000000000000000060648201526084016108b7565b5f80546040516001600160a01b03808516939216917f8be0079c531659141344cd1fd0a4f28419497f9722a3daafe3b4186f6b6457e091a35f805473ffffffffffffffffffffffffffffffffffffffff19166001600160a01b0392909216919091179055565b5f610f3a83836004613d9e565b5f613b1a8230613ebe565b5090565b5f6114f18263ffffffff166004613f47565b5f82613b4257613b3f5f613b1e565b92505b81613b5357613b505f613b1e565b91505b610f3a83835f613ffc565b5f611c4e8484846140f7565b5f82613b7c57613b795f613b1e565b92505b81613b8d57613b8a5f613b1e565b91505b610f3a83835f6141a0565b5f81815260026020526040808220600101805460ff60a01b1916600160a01b17905551339183917f4eccf1acaee8cc8d9d2c7f8f4e7f1bbcd3b0db47537ad7bd4694e8b54ce280a39190a35f818152600260205260408120600681015490919063ffffffff1667ffffffffffffffff811115613c1657613c16614b39565b604051908082528060200260200182016040528015613c3f578160200160208202803683370190505b5090505f5b600683015463ffffffff9081169082161015613cbb575f8481526005602052604090208054613c90919063ffffffff8416908110613c8457613c84615139565b905f5260205f20015490565b828263ffffffff1681518110613ca857613ca8615139565b6020908102919091010152600101613c44565b50604080514260208201529081018490527f616c6c5375626d697373696f6e7300000000000000000000000000000000000060608201525f90606e0160408051601f1981840301815291815281516020928301205f818152600990935291208590559050613d308263e1ef336d60e01b614255565b5050505050565b5f613d4183614261565b90505f613d4e8284614332565b905080613d6e5760405163cf6c44e960e01b815260040160405180910390fd5b60405184907f1af0453083661051f6e56e5c070792320652e612154bf9af8637bb1e7655b99d905f90a250505050565b7fed8d60e34876f751cc8b014c560745351147d9de11b9347c854e881b128ea6015460405163196d0b9b60e01b81525f917fed8d60e34876f751cc8b014c560745351147d9de11b9347c854e881b128ea600916001600160a01b039091169063196d0b9b90613e179088903390899089906004016153f1565b6020604051808303815f875af1158015613e33573d5f803e3d5ffd5b505050506040513d601f19601f82011682018060405250810190613e579190615427565b8154604051630f8e573b60e21b8152600481018390523360248201529193506001600160a01b031690633e395cec906044015f604051808303815f87803b158015613ea0575f80fd5b505af1158015613eb2573d5f803e3d5ffd5b50505050509392505050565b5f7fed8d60e34876f751cc8b014c560745351147d9de11b9347c854e881b128ea6008054604051635ca4b5b160e11b8152600481018690526001600160a01b03858116602483015292935091169063b9496b62906044015f604051808303815f87803b158015613f2c575f80fd5b505af1158015613f3e573d5f803e3d5ffd5b50505050505050565b7fed8d60e34876f751cc8b014c560745351147d9de11b9347c854e881b128ea60154604051639cd07acb60e01b81525f917fed8d60e34876f751cc8b014c560745351147d9de11b9347c854e881b128ea600916001600160a01b0390911690639cd07acb90613fbc908790879060040161543e565b6020604051808303815f875af1158015613fd8573d5f803e3d5ffd5b505050506040513d601f19601f82011682018060405250810190611c4e9190615427565b5f80821561400f5750600160f81b614012565b505f5b7fed8d60e34876f751cc8b014c560745351147d9de11b9347c854e881b128ea6015460405163f77f3f1d60e01b815260048101879052602481018690527fff00000000000000000000000000000000000000000000000000000000000000831660448201527fed8d60e34876f751cc8b014c560745351147d9de11b9347c854e881b128ea600916001600160a01b03169063f77f3f1d906064015b6020604051808303815f875af11580156140c9573d5f803e3d5ffd5b505050506040513d601f19601f820116820180604052508101906140ed9190615427565b9695505050505050565b5f807fed8d60e34876f751cc8b014c560745351147d9de11b9347c854e881b128ea6006001810154604051637702dcff60e01b81526004810188905260248101879052604481018690529192506001600160a01b031690637702dcff906064016020604051808303815f875af1158015614173573d5f803e3d5ffd5b505050506040513d601f19601f820116820180604052508101906141979190615427565b95945050505050565b5f8082156141b35750600160f81b6141b6565b505f5b7fed8d60e34876f751cc8b014c560745351147d9de11b9347c854e881b128ea6015460405163022f65e760e31b815260048101879052602481018690527fff00000000000000000000000000000000000000000000000000000000000000831660448201527fed8d60e34876f751cc8b014c560745351147d9de11b9347c854e881b128ea600916001600160a01b03169063117b2f38906064016140ad565b5f610f3a83835f61444d565b5f8181527f5ea69329017273582817d320489fbd94f775580e90c092699ca6f3d12fdf7d0260205260408120546060917f5ea69329017273582817d320489fbd94f775580e90c092699ca6f3d12fdf7d009190036142d25760405163d66ca67560e01b815260040160405180910390fd5b5f8381526002820160209081526040918290208054835181840281018401909452808452909183018282801561432557602002820191905f5260205f20905b815481526020019060010190808311614311575b5050505050915050919050565b5f60248161433f85614599565b90505f8167ffffffffffffffff81111561435b5761435b614b39565b6040519080825280601f01601f191660200182016040528015614385576020820181803683370190505b509050818360208301377fed8d60e34876f751cc8b014c560745351147d9de11b9347c854e881b128ea60254604051632c027b1360e21b81527fed8d60e34876f751cc8b014c560745351147d9de11b9347c854e881b128ea600916001600160a01b03169063b009ec4c90614402908a9086908b90600401615452565b6020604051808303815f875af115801561441e573d5f803e3d5ffd5b505050506040513d601f19601f8201168201806040525081019061444291906154d7565b979650505050505050565b7f5ea69329017273582817d320489fbd94f775580e90c092699ca6f3d12fdf7d01547fed8d60e34876f751cc8b014c560745351147d9de11b9347c854e881b128ea6008054604051637d6e912360e11b81527f5ea69329017273582817d320489fbd94f775580e90c092699ca6f3d12fdf7d0092916001600160a01b03169063fadd2246906144e09089906004016149b9565b5f604051808303815f87803b1580156144f7575f80fd5b505af1158015614509573d5f803e3d5ffd5b50508354604051633263b83b60e01b81526001600160a01b039091169250633263b83b915086906145429087908b908b906004016154f6565b5f604051808303818588803b158015614559575f80fd5b505af115801561456b573d5f803e3d5ffd5b505050505061457a8387614646565b600182018054905f61458b83615121565b919050555050509392505050565b80515f9081805b8281101561463a575f8582815181106145bb576145bb615139565b6020026020010151601e602081106145d5576145d5615139565b1a60538111156145e7576145e7614858565b905060098160538111156145fd576145fd614858565b60ff161015614618576146116020846150dc565b9250614631565b60405163ce54a8d160e01b815260040160405180910390fd5b506001016145a0565b50611c4e6020826150dc565b5f8281527f5ea69329017273582817d320489fbd94f775580e90c092699ca6f3d12fdf7d0260205260409020547f5ea69329017273582817d320489fbd94f775580e90c092699ca6f3d12fdf7d0090156146b357604051633f06d22b60e01b815260040160405180910390fd5b5f838152600282016020908152604090912083516146d392850190614759565b50505050565b604051806101a001604052805f8152602001606081526020015f6001600160a01b031681526020015f600381111561471357614713614858565b81525f6020820181905260408201819052606082018190526080820181905260a0820181905260c0820181905260e0820181905261010082018190526101209091015290565b828054828255905f5260205f20908101928215614792579160200282015b82811115614792578251825591602001919060010190614777565b50613b1a9291505b80821115613b1a575f815560010161479a565b5f8083601f8401126147bd575f80fd5b50813567ffffffffffffffff8111156147d4575f80fd5b6020830191508360208285010111156147eb575f80fd5b9250929050565b5f805f8060608587031215614805575f80fd5b8435935060208501359250604085013567ffffffffffffffff811115614829575f80fd5b614835878288016147ad565b95989497509550505050565b5f60208284031215614851575f80fd5b5035919050565b634e487b7160e01b5f52602160045260245ffd5b6004811061487c5761487c614858565b9052565b5f81518084525f5b818110156148a457602081850181015186830182015201614888565b505f602082860101526020601f19601f83011685010191505092915050565b5f6101808e83526001600160a01b038e1660208401526148e6604084018e61486c565b8060608401526148f88184018d614880565b63ffffffff9b8c166080850152998b1660a0840152505095881660c087015260e0860194909452610100850192909252851661012084015261014083015290921661016090920191909152949350505050565b80356001600160a01b0381168114614961575f80fd5b919050565b5f60208284031215614976575f80fd5b610f3a8261494b565b5f815180845260208085019450602084015f5b838110156149ae57815187529582019590820190600101614992565b509495945050505050565b602081525f610f3a602083018461497f565b5f80604083850312156149dc575f80fd5b823591506149ec6020840161494b565b90509250929050565b5f60208083018184528085518083526040925060408601915060408160051b8701018488015f5b83811015614af857603f19898403018552815180518452878101516001600160a01b0316888501528681015161018090614a588987018261486c565b506060808301518282880152614a7083880182614880565b92505050608080830151614a8b8288018263ffffffff169052565b505060a08281015163ffffffff9081169187019190915260c08084015182169087015260e080840151908701526101008084015190870152610120808401518216908701526101408084015190870152610160928301511691909401529386019390860190600101614a1c565b509098975050505050505050565b5f8060408385031215614b17575f80fd5b50508035926020909101359150565b803563ffffffff81168114614961575f80fd5b634e487b7160e01b5f52604160045260245ffd5b604051601f8201601f1916810167ffffffffffffffff81118282101715614b7657614b76614b39565b604052919050565b5f67ffffffffffffffff821115614b9757614b97614b39565b5060051b60200190565b5f601f83601f840112614bb2575f80fd5b82356020614bc7614bc283614b7e565b614b4d565b82815260059290921b85018101918181019087841115614be5575f80fd5b8287015b84811015614c7557803567ffffffffffffffff80821115614c08575f80fd5b818a0191508a603f830112614c1b575f80fd5b85820135604082821115614c3157614c31614b39565b614c42828b01601f19168901614b4d565b92508183528c81838601011115614c57575f80fd5b8181850189850137505f908201870152845250918301918301614be9565b50979650505050505050565b5f805f60608486031215614c93575f80fd5b83359250614ca360208501614b26565b9150604084013567ffffffffffffffff811115614cbe575f80fd5b614cca86828701614ba1565b9150509250925092565b86815260c060208201525f614cec60c0830188614880565b90506001600160a01b038616604083015263ffffffff851660608301528360808301528260a0830152979650505050505050565b606080825284519082018190525f906020906080840190828801845b82811015614d615781516001600160a01b031684529284019290840190600101614d3c565b5050508381036020850152614d76818761497f565b91505082810360408401526140ed818561497f565b5f8060408385031215614d9c575f80fd5b823591506149ec60208401614b26565b60208152815160208201525f60208301516101a0806040850152614dd46101c0850183614880565b91506040850151614df060608601826001600160a01b03169052565b506060850151614e03608086018261486c565b50608085015163ffffffff811660a08601525060a085015163ffffffff811660c08601525060c085015163ffffffff811660e08601525060e0850151610100614e538187018363ffffffff169052565b8601516101208681019190915286015161014080870191909152860151610160808701919091528601519050610180614e96818701836001600160a01b03169052565b86015163ffffffff8116838701529050610e64565b5f805f60608486031215614ebd575f80fd5b8335925060208085013567ffffffffffffffff80821115614edc575f80fd5b818701915087601f830112614eef575f80fd5b8135614efd614bc282614b7e565b81815260059190911b8301840190848101908a831115614f1b575f80fd5b938501935b82851015614f4057614f3185614b26565b82529385019390850190614f20565b965050506040870135925080831115614f57575f80fd5b5050614cca86828701614ba1565b5f60208284031215614f75575f80fd5b813560048110610f3a575f80fd5b5f60208083018184528085518083526040925060408601915060408160051b8701018488015f5b83811015614af857603f19898403018552815160c08151855288820151818a870152614fd882870182614880565b838a01516001600160a01b0316878b015260608085015163ffffffff16908801526080808501519088015260a093840151939096019290925250509386019390860190600101614faa565b5f805f805f805f60c0888a031215615039575f80fd5b873567ffffffffffffffff81111561504f575f80fd5b61505b8a828b016147ad565b909850965061506e905060208901614b26565b945061507c60408901614b26565b935061508a60608901614b26565b92506080880135915060a0880135905092959891949750929550565b634e487b7160e01b5f52601160045260245ffd5b5f63ffffffff8083168181036150d2576150d26150a6565b6001019392505050565b808201808211156114f1576114f16150a6565b600181811c9082168061510357607f821691505b60208210810361302157634e487b7160e01b5f52602260045260245ffd5b5f60018201615132576151326150a6565b5060010190565b634e487b7160e01b5f52603260045260245ffd5b818103818111156114f1576114f16150a6565b80820281158282048414176114f1576114f16150a6565b5f8261519157634e487b7160e01b5f52601260045260245ffd5b500490565b601f8211156151da57805f5260205f20601f840160051c810160208510156151bb5750805b601f840160051c820191505b81811015613d30575f81556001016151c7565b505050565b815167ffffffffffffffff8111156151f9576151f9614b39565b61520d8161520784546150ef565b84615196565b602080601f831160018114615240575f84156152295750858301515b5f19600386901b1c1916600185901b178555610c56565b5f85815260208120601f198616915b8281101561526e5788860151825594840194600190910190840161524f565b508582101561528b57878501515f19600388901b60f8161c191681555b5050505050600190811b01905550565b63ffffffff8281168282160390808211156152b8576152b86150a6565b5092915050565b67ffffffffffffffff8311156152d7576152d7614b39565b6152eb836152e583546150ef565b83615196565b5f601f84116001811461531c575f85156153055750838201355b5f19600387901b1c1916600186901b178355613d30565b5f83815260208120601f198716915b8281101561534b578685013582556020948501946001909201910161532b565b5086821015615367575f1960f88860031b161c19848701351681555b505060018560011b0183555050505050565b63ffffffff8181168382160190808211156152b8576152b86150a6565b60808152846080820152848660a08301375f60a086830101525f60a0601f19601f880116830101905084602083015263ffffffff841660408301528260608301529695505050505050565b6054811061487c5761487c614858565b8481526001600160a01b0384166020820152608060408201525f6154186080830185614880565b905061419760608301846153e1565b5f60208284031215615437575f80fd5b5051919050565b82815260408101610f3a60208301846153e1565b606081525f615464606083018661497f565b6020838203818501526154778287614880565b915083820360408501528185518084528284019150828160051b8501018388015f5b838110156154c757601f198784030185526154b5838351614880565b94860194925090850190600101615499565b50909a9950505050505050505050565b5f602082840312156154e7575f80fd5b81518015158114610f3a575f80fd5b838152606060208201525f61550e606083018561497f565b905063ffffffff60e01b8316604083015294935050505056fea164736f6c6343000818000a",
  "linkReferences": {},
  "deployedLinkReferences": {}
}