{
  "_format": "hh-sol-artifact-1",
  "contractName": "UniqueNumberGameFactory",
  "sourceName": "contracts/UniqueNumberGameFactory.sol",
  "abi": [
    {
      "inputs": [],
      "name": "HandlesAlreadySavedForRequestID",
      "type": "error"
    },
    {
      "inputs": [],
      "name": "InvalidKMSSignatures",
      "type": "error"
    },
    {
      "inputs": [],
      "name": "NoHandleFoundForRequestID",
      "type": "error"
    },
    {
      "inputs": [],
      "name": "UnsupportedHandleType",
      "type": "error"
    },
    {
      "anonymous": false,
      "inputs": [
        {
          "indexed": true,
          "internalType": "uint256",
          "name": "requestID",
          "type": "uint256"
        }
      ],
      "name": "DecryptionFulfilled",
      "type": "event"
    },
    {
      "anonymous": false,
      "inputs": [
        {
          "indexed": true,
          "internalType": "uint256",
          "name": "gameId",
          "type": "uint256"
        },
        {
          "indexed": true,
          "internalType": "address",
          "name": "creator",
          "type": "address"
        },
        {
          "indexed": false,
          "internalType": "string",
          "name": "roomName",
          "type": "string"
        },
        {
          "indexed": false,
          "internalType": "uint256",
          "name": "entryFee",
          "type": "uint256"
        },
        {
          "indexed": false,
          "internalType": "uint32",
          "name": "maxPlayers",
          "type": "uint32"
        },
        {
          "indexed": false,
          "internalType": "uint256",
          "name": "deadline",
          "type": "uint256"
        }
      ],
      "name": "GameCreated",
      "type": "event"
    },
    {
      "anonymous": false,
      "inputs": [
        {
          "indexed": true,
          "internalType": "uint256",
          "name": "gameId",
          "type": "uint256"
        },
        {
          "indexed": true,
          "internalType": "address",
          "name": "winner",
          "type": "address"
        },
        {
          "indexed": false,
          "internalType": "uint256",
          "name": "amount",
          "type": "uint256"
        }
      ],
      "name": "PrizeClaimed",
      "type": "event"
    },
    {
      "anonymous": false,
      "inputs": [
        {
          "indexed": true,
          "internalType": "uint256",
          "name": "gameId",
          "type": "uint256"
        },
        {
          "indexed": true,
          "internalType": "address",
          "name": "player",
          "type": "address"
        },
        {
          "indexed": false,
          "internalType": "uint32",
          "name": "playerCount",
          "type": "uint32"
        }
      ],
      "name": "SubmissionReceived",
      "type": "event"
    },
    {
      "anonymous": false,
      "inputs": [
        {
          "indexed": true,
          "internalType": "uint256",
          "name": "gameId",
          "type": "uint256"
        },
        {
          "indexed": true,
          "internalType": "address",
          "name": "trigger",
          "type": "address"
        }
      ],
      "name": "WinnerCalculationStarted",
      "type": "event"
    },
    {
      "anonymous": false,
      "inputs": [
        {
          "indexed": true,
          "internalType": "uint256",
          "name": "gameId",
          "type": "uint256"
        },
        {
          "indexed": false,
          "internalType": "uint32",
          "name": "winnerNumber",
          "type": "uint32"
        },
        {
          "indexed": true,
          "internalType": "address",
          "name": "winnerAddress",
          "type": "address"
        }
      ],
      "name": "WinnerDetermined",
      "type": "event"
    },
    {
      "inputs": [
        {
          "internalType": "uint256",
          "name": "requestId",
          "type": "uint256"
        },
        {
          "internalType": "uint32",
          "name": "decryptedWinnerIndex",
          "type": "uint32"
        },
        {
          "internalType": "bytes[]",
          "name": "signatures",
          "type": "bytes[]"
        }
      ],
      "name": "callbackDecryptWinnerIndex",
      "outputs": [],
      "stateMutability": "nonpayable",
      "type": "function"
    },
    {
      "inputs": [
        {
          "internalType": "uint256",
          "name": "requestId",
          "type": "uint256"
        },
        {
          "internalType": "uint32",
          "name": "decryptedWinnerNumber",
          "type": "uint32"
        },
        {
          "internalType": "bytes[]",
          "name": "signatures",
          "type": "bytes[]"
        }
      ],
      "name": "callbackDecryptWinnerNumber",
      "outputs": [],
      "stateMutability": "nonpayable",
      "type": "function"
    },
    {
      "inputs": [
        {
          "internalType": "uint256",
          "name": "gameId",
          "type": "uint256"
        }
      ],
      "name": "canFinalizeGame",
      "outputs": [
        {
          "internalType": "bool",
          "name": "",
          "type": "bool"
        }
      ],
      "stateMutability": "view",
      "type": "function"
    },
    {
      "inputs": [
        {
          "internalType": "uint256",
          "name": "_gameId",
          "type": "uint256"
        }
      ],
      "name": "claimPrize",
      "outputs": [],
      "stateMutability": "nonpayable",
      "type": "function"
    },
    {
      "inputs": [
        {
          "internalType": "string",
          "name": "_roomName",
          "type": "string"
        },
        {
          "internalType": "uint32",
          "name": "_minNumber",
          "type": "uint32"
        },
        {
          "internalType": "uint32",
          "name": "_maxNumber",
          "type": "uint32"
        },
        {
          "internalType": "uint32",
          "name": "_maxPlayers",
          "type": "uint32"
        },
        {
          "internalType": "uint256",
          "name": "_entryFee",
          "type": "uint256"
        },
        {
          "internalType": "uint256",
          "name": "_deadlineDuration",
          "type": "uint256"
        }
      ],
      "name": "createGame",
      "outputs": [],
      "stateMutability": "nonpayable",
      "type": "function"
    },
    {
      "inputs": [
        {
          "internalType": "uint256",
          "name": "_gameId",
          "type": "uint256"
        }
      ],
      "name": "findWinnerByDeadline",
      "outputs": [],
      "stateMutability": "nonpayable",
      "type": "function"
    },
    {
      "inputs": [],
      "name": "gameCounter",
      "outputs": [
        {
          "internalType": "uint256",
          "name": "",
          "type": "uint256"
        }
      ],
      "stateMutability": "view",
      "type": "function"
    },
    {
      "inputs": [
        {
          "internalType": "uint256",
          "name": "",
          "type": "uint256"
        },
        {
          "internalType": "uint32",
          "name": "",
          "type": "uint32"
        }
      ],
      "name": "gameCounts",
      "outputs": [
        {
          "internalType": "euint32",
          "name": "",
          "type": "bytes32"
        }
      ],
      "stateMutability": "view",
      "type": "function"
    },
    {
      "inputs": [
        {
          "internalType": "uint256",
          "name": "",
          "type": "uint256"
        },
        {
          "internalType": "uint256",
          "name": "",
          "type": "uint256"
        }
      ],
      "name": "gameEncryptedSubmissions",
      "outputs": [
        {
          "internalType": "euint32",
          "name": "",
          "type": "bytes32"
        }
      ],
      "stateMutability": "view",
      "type": "function"
    },
    {
      "inputs": [
        {
          "internalType": "uint256",
          "name": "",
          "type": "uint256"
        },
        {
          "internalType": "uint256",
          "name": "",
          "type": "uint256"
        }
      ],
      "name": "gamePlayerAddresses",
      "outputs": [
        {
          "internalType": "address",
          "name": "",
          "type": "address"
        }
      ],
      "stateMutability": "view",
      "type": "function"
    },
    {
      "inputs": [
        {
          "internalType": "uint256",
          "name": "",
          "type": "uint256"
        }
      ],
      "name": "gamePots",
      "outputs": [
        {
          "internalType": "uint256",
          "name": "",
          "type": "uint256"
        }
      ],
      "stateMutability": "view",
      "type": "function"
    },
    {
      "inputs": [
        {
          "internalType": "uint256",
          "name": "",
          "type": "uint256"
        }
      ],
      "name": "gameWinners",
      "outputs": [
        {
          "internalType": "address",
          "name": "",
          "type": "address"
        }
      ],
      "stateMutability": "view",
      "type": "function"
    },
    {
      "inputs": [
        {
          "internalType": "uint256",
          "name": "",
          "type": "uint256"
        }
      ],
      "name": "games",
      "outputs": [
        {
          "internalType": "uint256",
          "name": "gameId",
          "type": "uint256"
        },
        {
          "internalType": "address",
          "name": "creator",
          "type": "address"
        },
        {
          "internalType": "enum UniqueNumberGameFactory.GameStatus",
          "name": "status",
          "type": "uint8"
        },
        {
          "internalType": "string",
          "name": "roomName",
          "type": "string"
        },
        {
          "internalType": "uint32",
          "name": "minNumber",
          "type": "uint32"
        },
        {
          "internalType": "uint32",
          "name": "maxNumber",
          "type": "uint32"
        },
        {
          "internalType": "uint32",
          "name": "maxPlayers",
          "type": "uint32"
        },
        {
          "internalType": "uint256",
          "name": "entryFee",
          "type": "uint256"
        },
        {
          "internalType": "uint256",
          "name": "deadline",
          "type": "uint256"
        },
        {
          "internalType": "uint32",
          "name": "playerCount",
          "type": "uint32"
        },
        {
          "internalType": "euint32",
          "name": "encryptedWinner",
          "type": "bytes32"
        },
        {
          "internalType": "uint32",
          "name": "decryptedWinner",
          "type": "uint32"
        }
      ],
      "stateMutability": "view",
      "type": "function"
    },
    {
      "inputs": [],
      "name": "getActiveGames",
      "outputs": [
        {
          "components": [
            {
              "internalType": "uint256",
              "name": "gameId",
              "type": "uint256"
            },
            {
              "internalType": "address",
              "name": "creator",
              "type": "address"
            },
            {
              "internalType": "enum UniqueNumberGameFactory.GameStatus",
              "name": "status",
              "type": "uint8"
            },
            {
              "internalType": "string",
              "name": "roomName",
              "type": "string"
            },
            {
              "internalType": "uint32",
              "name": "minNumber",
              "type": "uint32"
            },
            {
              "internalType": "uint32",
              "name": "maxNumber",
              "type": "uint32"
            },
            {
              "internalType": "uint32",
              "name": "maxPlayers",
              "type": "uint32"
            },
            {
              "internalType": "uint256",
              "name": "entryFee",
              "type": "uint256"
            },
            {
              "internalType": "uint256",
              "name": "deadline",
              "type": "uint256"
            },
            {
              "internalType": "uint32",
              "name": "playerCount",
              "type": "uint32"
            },
            {
              "internalType": "euint32",
              "name": "encryptedWinner",
              "type": "bytes32"
            },
            {
              "internalType": "uint32",
              "name": "decryptedWinner",
              "type": "uint32"
            }
          ],
          "internalType": "struct UniqueNumberGameFactory.Game[]",
          "name": "",
          "type": "tuple[]"
        }
      ],
      "stateMutability": "view",
      "type": "function"
    },
    {
      "inputs": [],
      "name": "getAllGames",
      "outputs": [
        {
          "components": [
            {
              "internalType": "uint256",
              "name": "gameId",
              "type": "uint256"
            },
            {
              "internalType": "address",
              "name": "creator",
              "type": "address"
            },
            {
              "internalType": "enum UniqueNumberGameFactory.GameStatus",
              "name": "status",
              "type": "uint8"
            },
            {
              "internalType": "string",
              "name": "roomName",
              "type": "string"
            },
            {
              "internalType": "uint32",
              "name": "minNumber",
              "type": "uint32"
            },
            {
              "internalType": "uint32",
              "name": "maxNumber",
              "type": "uint32"
            },
            {
              "internalType": "uint32",
              "name": "maxPlayers",
              "type": "uint32"
            },
            {
              "internalType": "uint256",
              "name": "entryFee",
              "type": "uint256"
            },
            {
              "internalType": "uint256",
              "name": "deadline",
              "type": "uint256"
            },
            {
              "internalType": "uint32",
              "name": "playerCount",
              "type": "uint32"
            },
            {
              "internalType": "euint32",
              "name": "encryptedWinner",
              "type": "bytes32"
            },
            {
              "internalType": "uint32",
              "name": "decryptedWinner",
              "type": "uint32"
            }
          ],
          "internalType": "struct UniqueNumberGameFactory.Game[]",
          "name": "",
          "type": "tuple[]"
        }
      ],
      "stateMutability": "view",
      "type": "function"
    },
    {
      "inputs": [
        {
          "internalType": "uint256",
          "name": "gameId",
          "type": "uint256"
        }
      ],
      "name": "getGameSummary",
      "outputs": [
        {
          "components": [
            {
              "internalType": "uint256",
              "name": "gameId",
              "type": "uint256"
            },
            {
              "internalType": "string",
              "name": "roomName",
              "type": "string"
            },
            {
              "internalType": "address",
              "name": "creator",
              "type": "address"
            },
            {
              "internalType": "enum UniqueNumberGameFactory.GameStatus",
              "name": "status",
              "type": "uint8"
            },
            {
              "internalType": "uint32",
              "name": "playerCount",
              "type": "uint32"
            },
            {
              "internalType": "uint32",
              "name": "maxPlayers",
              "type": "uint32"
            },
            {
              "internalType": "uint32",
              "name": "minNumber",
              "type": "uint32"
            },
            {
              "internalType": "uint32",
              "name": "maxNumber",
              "type": "uint32"
            },
            {
              "internalType": "uint256",
              "name": "entryFee",
              "type": "uint256"
            },
            {
              "internalType": "uint256",
              "name": "deadline",
              "type": "uint256"
            },
            {
              "internalType": "uint256",
              "name": "prizePool",
              "type": "uint256"
            },
            {
              "internalType": "address",
              "name": "winner",
              "type": "address"
            },
            {
              "internalType": "uint32",
              "name": "winningNumber",
              "type": "uint32"
            }
          ],
          "internalType": "struct UniqueNumberGameFactory.GameSummary",
          "name": "",
          "type": "tuple"
        }
      ],
      "stateMutability": "view",
      "type": "function"
    },
    {
      "inputs": [
        {
          "internalType": "enum UniqueNumberGameFactory.GameStatus",
          "name": "status",
          "type": "uint8"
        }
      ],
      "name": "getGamesByStatus",
      "outputs": [
        {
          "components": [
            {
              "internalType": "uint256",
              "name": "gameId",
              "type": "uint256"
            },
            {
              "internalType": "address",
              "name": "creator",
              "type": "address"
            },
            {
              "internalType": "enum UniqueNumberGameFactory.GameStatus",
              "name": "status",
              "type": "uint8"
            },
            {
              "internalType": "string",
              "name": "roomName",
              "type": "string"
            },
            {
              "internalType": "uint32",
              "name": "minNumber",
              "type": "uint32"
            },
            {
              "internalType": "uint32",
              "name": "maxNumber",
              "type": "uint32"
            },
            {
              "internalType": "uint32",
              "name": "maxPlayers",
              "type": "uint32"
            },
            {
              "internalType": "uint256",
              "name": "entryFee",
              "type": "uint256"
            },
            {
              "internalType": "uint256",
              "name": "deadline",
              "type": "uint256"
            },
            {
              "internalType": "uint32",
              "name": "playerCount",
              "type": "uint32"
            },
            {
              "internalType": "euint32",
              "name": "encryptedWinner",
              "type": "bytes32"
            },
            {
              "internalType": "uint32",
              "name": "decryptedWinner",
              "type": "uint32"
            }
          ],
          "internalType": "struct UniqueNumberGameFactory.Game[]",
          "name": "",
          "type": "tuple[]"
        }
      ],
      "stateMutability": "view",
      "type": "function"
    },
    {
      "inputs": [
        {
          "internalType": "uint256",
          "name": "offset",
          "type": "uint256"
        },
        {
          "internalType": "uint256",
          "name": "limit",
          "type": "uint256"
        }
      ],
      "name": "getGamesWithPagination",
      "outputs": [
        {
          "components": [
            {
              "internalType": "uint256",
              "name": "gameId",
              "type": "uint256"
            },
            {
              "internalType": "address",
              "name": "creator",
              "type": "address"
            },
            {
              "internalType": "enum UniqueNumberGameFactory.GameStatus",
              "name": "status",
              "type": "uint8"
            },
            {
              "internalType": "string",
              "name": "roomName",
              "type": "string"
            },
            {
              "internalType": "uint32",
              "name": "minNumber",
              "type": "uint32"
            },
            {
              "internalType": "uint32",
              "name": "maxNumber",
              "type": "uint32"
            },
            {
              "internalType": "uint32",
              "name": "maxPlayers",
              "type": "uint32"
            },
            {
              "internalType": "uint256",
              "name": "entryFee",
              "type": "uint256"
            },
            {
              "internalType": "uint256",
              "name": "deadline",
              "type": "uint256"
            },
            {
              "internalType": "uint32",
              "name": "playerCount",
              "type": "uint32"
            },
            {
              "internalType": "euint32",
              "name": "encryptedWinner",
              "type": "bytes32"
            },
            {
              "internalType": "uint32",
              "name": "decryptedWinner",
              "type": "uint32"
            }
          ],
          "internalType": "struct UniqueNumberGameFactory.Game[]",
          "name": "",
          "type": "tuple[]"
        }
      ],
      "stateMutability": "view",
      "type": "function"
    },
    {
      "inputs": [
        {
          "internalType": "uint256",
          "name": "limit",
          "type": "uint256"
        }
      ],
      "name": "getLeaderboard",
      "outputs": [
        {
          "internalType": "address[]",
          "name": "topPlayers",
          "type": "address[]"
        },
        {
          "internalType": "uint256[]",
          "name": "winCounts",
          "type": "uint256[]"
        },
        {
          "internalType": "uint256[]",
          "name": "totalWinnings",
          "type": "uint256[]"
        }
      ],
      "stateMutability": "view",
      "type": "function"
    },
    {
      "inputs": [
        {
          "internalType": "address",
          "name": "player",
          "type": "address"
        }
      ],
      "name": "getPlayerGames",
      "outputs": [
        {
          "internalType": "uint256[]",
          "name": "",
          "type": "uint256[]"
        }
      ],
      "stateMutability": "view",
      "type": "function"
    },
    {
      "inputs": [
        {
          "internalType": "address",
          "name": "player",
          "type": "address"
        }
      ],
      "name": "getPlayerStats",
      "outputs": [
        {
          "components": [
            {
              "internalType": "uint256",
              "name": "gamesPlayed",
              "type": "uint256"
            },
            {
              "internalType": "uint256",
              "name": "gamesWon",
              "type": "uint256"
            },
            {
              "internalType": "uint256",
              "name": "totalWinnings",
              "type": "uint256"
            }
          ],
          "internalType": "struct UniqueNumberGameFactory.PlayerStats",
          "name": "",
          "type": "tuple"
        }
      ],
      "stateMutability": "view",
      "type": "function"
    },
    {
      "inputs": [],
      "name": "getTotalGamesCount",
      "outputs": [
        {
          "internalType": "uint256",
          "name": "",
          "type": "uint256"
        }
      ],
      "stateMutability": "view",
      "type": "function"
    },
    {
      "inputs": [
        {
          "internalType": "uint256",
          "name": "limit",
          "type": "uint256"
        }
      ],
      "name": "getWinnerHistory",
      "outputs": [
        {
          "components": [
            {
              "internalType": "uint256",
              "name": "gameId",
              "type": "uint256"
            },
            {
              "internalType": "string",
              "name": "roomName",
              "type": "string"
            },
            {
              "internalType": "address",
              "name": "winner",
              "type": "address"
            },
            {
              "internalType": "uint32",
              "name": "winningNumber",
              "type": "uint32"
            },
            {
              "internalType": "uint256",
              "name": "prize",
              "type": "uint256"
            },
            {
              "internalType": "uint256",
              "name": "timestamp",
              "type": "uint256"
            }
          ],
          "internalType": "struct UniqueNumberGameFactory.WinnerRecord[]",
          "name": "",
          "type": "tuple[]"
        }
      ],
      "stateMutability": "view",
      "type": "function"
    },
    {
      "inputs": [],
      "name": "getWinnerHistoryCount",
      "outputs": [
        {
          "internalType": "uint256",
          "name": "",
          "type": "uint256"
        }
      ],
      "stateMutability": "view",
      "type": "function"
    },
    {
      "inputs": [
        {
          "internalType": "uint256",
          "name": "",
          "type": "uint256"
        },
        {
          "internalType": "address",
          "name": "",
          "type": "address"
        }
      ],
      "name": "hasPlayerSubmitted",
      "outputs": [
        {
          "internalType": "bool",
          "name": "",
          "type": "bool"
        }
      ],
      "stateMutability": "view",
      "type": "function"
    },
    {
      "inputs": [
        {
          "internalType": "uint256",
          "name": "_gameId",
          "type": "uint256"
        },
        {
          "internalType": "externalEuint32",
          "name": "_encryptedNumber",
          "type": "bytes32"
        },
        {
          "internalType": "bytes",
          "name": "inputProof",
          "type": "bytes"
        }
      ],
      "name": "submitNumber",
      "outputs": [],
      "stateMutability": "payable",
      "type": "function"
    },
    {
      "inputs": [
        {
          "internalType": "uint256",
          "name": "",
          "type": "uint256"
        }
      ],
      "name": "winnerHistory",
      "outputs": [
        {
          "internalType": "uint256",
          "name": "gameId",
          "type": "uint256"
        },
        {
          "internalType": "string",
          "name": "roomName",
          "type": "string"
        },
        {
          "internalType": "address",
          "name": "winner",
          "type": "address"
        },
        {
          "internalType": "uint32",
          "name": "winningNumber",
          "type": "uint32"
        },
        {
          "internalType": "uint256",
          "name": "prize",
          "type": "uint256"
        },
        {
          "internalType": "uint256",
          "name": "timestamp",
          "type": "uint256"
        }
      ],
      "stateMutability": "view",
      "type": "function"
    }
  ],
  "bytecode": "0x608060405234801562000010575f80fd5b506200018d620000b1604080516080810182525f808252602082018190529181018290526060810191909152506040805160808101825273687820221192c5b662b25367f70076a37bc79b6c815273848b0066793bcc60346da1f49049357399b8d5956020820152731364cbbf2cdf5032c47d8226a6f6fbd2afcdacac9181019190915273bc91f3dad1a5f19f8390c400196e58073b6a0bc4606082015290565b80517fed8d60e34876f751cc8b014c560745351147d9de11b9347c854e881b128ea60080546001600160a01b03199081166001600160a01b039384161790915560208301517fed8d60e34876f751cc8b014c560745351147d9de11b9347c854e881b128ea6018054831691841691909117905560408301517fed8d60e34876f751cc8b014c560745351147d9de11b9347c854e881b128ea6028054831691841691909117905560608301517fed8d60e34876f751cc8b014c560745351147d9de11b9347c854e881b128ea6038054909216921691909117905550565b7f5ea69329017273582817d320489fbd94f775580e90c092699ca6f3d12fdf7d0080546001600160a01b03191673a02cda4ca3a71d7c46997716f4283aa851c28812179055614a8f80620001e05f395ff3fe6080604052600436106101a4575f3560e01c80637bdd449c116100e7578063c7c77bba11610087578063d709815411610062578063d70981541461053c578063db1c45f91461055b578063ee43a8fb1461056f578063f12b6d2e1461058e575f80fd5b8063c7c77bba146104d2578063d04397dc146104f1578063d34e4b2014610510575f80fd5b8063aa8de56c116100c2578063aa8de56c14610432578063af8ada5d14610468578063b19db75f14610494578063bbc6f134146104b3575f80fd5b80637bdd449c146103a557806381159cc6146103f1578063a34b46fe14610404575f80fd5b806322b8d878116101525780633e99f19f1161012d5780633e99f19f146102e95780634198b15c146103085780634fd66eae1461033357806375964b5514610374575f80fd5b806322b8d878146102985780632e0be39a146102b65780633e295756146102ca575f80fd5b80631b589d09116101825780631b589d09146102295780631b76929c146102585780632093f08714610279575f80fd5b80630d60767a146101a8578063117a5b90146101bd578063129daf84146101fd575b5f80fd5b6101bb6101b6366004613e4a565b6105c7565b005b3480156101c8575f80fd5b506101dc6101d7366004613e99565b6109e5565b6040516101f49c9b9a99989796959493929190613f1b565b60405180910390f35b348015610208575f80fd5b5061021c610217366004613fbe565b610ae7565b6040516101f49190614011565b348015610234575f80fd5b50610248610243366004613e99565b610bf0565b60405190151581526020016101f4565b348015610263575f80fd5b5061026c610cc2565b6040516101f49190614023565b348015610284575f80fd5b5061026c610293366004614134565b610f9e565b3480156102a3575f80fd5b506009545b6040519081526020016101f4565b3480156102c1575f80fd5b506102a85f5481565b3480156102d5575f80fd5b506101bb6102e43660046141ac565b61126e565b3480156102f4575f80fd5b506101bb610303366004613e99565b611555565b348015610313575f80fd5b506102a8610322366004613e99565b60066020525f908152604090205481565b34801561033e575f80fd5b5061035261034d366004613fbe565b611694565b60408051825181526020808401519082015291810151908201526060016101f4565b34801561037f575f80fd5b5061039361038e366004613e99565b6117b4565b6040516101f4969594939291906142d2565b3480156103b0575f80fd5b506103d96103bf366004613e99565b60076020525f90815260409020546001600160a01b031681565b6040516001600160a01b0390911681526020016101f4565b3480156103fc575f80fd5b505f546102a8565b34801561040f575f80fd5b5061042361041e366004613e99565b611893565b6040516101f49392919061431e565b34801561043d575f80fd5b506102a861044c366004614389565b600260209081525f928352604080842090915290825290205481565b348015610473575f80fd5b50610487610482366004613e99565b611eef565b6040516101f491906143b3565b34801561049f575f80fd5b506102a86104ae366004614134565b6120c9565b3480156104be575f80fd5b5061026c6104cd3660046144b2565b6120f4565b3480156104dd575f80fd5b506103d96104ec366004614134565b6123ed565b3480156104fc575f80fd5b506101bb61050b3660046141ac565b612421565b34801561051b575f80fd5b5061052f61052a366004613e99565b61267c565b6040516101f491906144d0565b348015610547575f80fd5b506101bb610556366004613e99565b61287b565b348015610566575f80fd5b5061026c612ac6565b34801561057a575f80fd5b506101bb610589366004614570565b612d0b565b348015610599575f80fd5b506102486105a83660046145f3565b600560209081525f928352604080842090915290825290205460ff1681565b5f848152600160205260408120906001820154600160a01b900460ff1660038111156105f5576105f5613eb0565b146106475760405162461bcd60e51b815260206004820152601060248201527f47616d65206973206e6f74206f70656e0000000000000000000000000000000060448201526064015b60405180910390fd5b8060050154421061069a5760405162461bcd60e51b815260206004820152601860248201527f47616d65206861732070617373656420646561646c696e650000000000000000604482015260640161063e565b806004015434146106ed5760405162461bcd60e51b815260206004820152601360248201527f496e636f727265637420656e7472792066656500000000000000000000000000604482015260640161063e565b5f85815260056020908152604080832033845290915290205460ff16156107565760405162461bcd60e51b815260206004820152601c60248201527f506c617965722068617320616c7265616479207375626d697474656400000000604482015260640161063e565b60068101805463ffffffff16905f61076d83614628565b825463ffffffff9182166101009390930a9283029190920219909116179055505f8581526005602090815260408083203384528252808320805460ff191660011790558783526006909152812080543492906107ca90849061464a565b925050819055505f6108118585858080601f0160208091040260200160405190810160405280939291908181526020018383808284375f9201919091525061303692505050565b905061081c81613043565b505f86815260036020818152604080842080546001818101835591865283862001805473ffffffffffffffffffffffffffffffffffffffff1916331790558a855260048352908420805491820181558452922090910182905582015463ffffffff165b600383015463ffffffff640100000000909104811690821611610970575f6108a682613052565b90506108b181613043565b505f6108bd8483613064565b90505f6108ca6001613052565b90505f6108d65f613052565b90506108e182613043565b506108eb81613043565b505f6108f8848484613092565b905061090381613043565b505f8c815260026020908152604080832063ffffffff8a16845290915290205461092d90826130a6565b5f8d815260026020908152604080832063ffffffff8b168452909152902081905561095790613043565b505050505050808061096890614628565b91505061087f565b50600682015460405163ffffffff9091168152339087907f443120c0315da5852a69180cb52de553803c3fcc68503410b8bf2b1a7431b0099060200160405180910390a36003820154600683015463ffffffff600160401b90920482169116036109dd576109dd866130d4565b505050505050565b600160208190525f91825260409091208054918101546002820180546001600160a01b03831693600160a01b90930460ff16929190610a239061465d565b80601f0160208091040260200160405190810160405280929190818152602001828054610a4f9061465d565b8015610a9a5780601f10610a7157610100808354040283529160200191610a9a565b820191905f5260205f20905b815481529060010190602001808311610a7d57829003601f168201915b5050505060038301546004840154600585015460068601546007870154600890970154959663ffffffff80861697640100000000870482169750600160401b90960481169592811692168c565b60605f805b5f54811015610b35575f8181526005602090815260408083206001600160a01b038816845290915290205460ff1615610b2d5781610b298161468f565b9250505b600101610aec565b505f8167ffffffffffffffff811115610b5057610b50614167565b604051908082528060200260200182016040528015610b79578160200160208202803683370190505b5090505f805b5f54811015610be6575f8181526005602090815260408083206001600160a01b038a16845290915290205460ff1615610bde5780838381518110610bc557610bc56146a7565b602090810291909101015281610bda8161468f565b9250505b600101610b7f565b5090949350505050565b5f80548210610c415760405162461bcd60e51b815260206004820152601360248201527f47616d6520646f6573206e6f7420657869737400000000000000000000000000604482015260640161063e565b5f828152600160205260408120906001820154600160a01b900460ff166003811115610c6f57610c6f613eb0565b14610c7c57505f92915050565b6003810154600682015463ffffffff908116600160401b909204161480610cbb575080600501544210158015610cbb5750600681015463ffffffff1615155b9392505050565b60605f805b5f54811015610d17575f81815260016020819052604082200154600160a01b900460ff166003811115610cfc57610cfc613eb0565b03610d0f5781610d0b8161468f565b9250505b600101610cc7565b505f8167ffffffffffffffff811115610d3257610d32614167565b604051908082528060200260200182016040528015610dbe57816020015b60408051610180810182525f80825260208083018290529282018190526060808301526080820181905260a0820181905260c0820181905260e0820181905261010082018190526101208201819052610140820181905261016082015282525f19909201910181610d505790505b5090505f805b5f54811015610f95575f81815260016020819052604082200154600160a01b900460ff166003811115610df957610df9613eb0565b03610f8d575f8181526001602081815260409283902083516101808101855281548152928101546001600160a01b038116928401929092529192830190600160a01b900460ff166003811115610e5157610e51613eb0565b6003811115610e6257610e62613eb0565b8152602001600282018054610e769061465d565b80601f0160208091040260200160405190810160405280929190818152602001828054610ea29061465d565b8015610eed5780601f10610ec457610100808354040283529160200191610eed565b820191905f5260205f20905b815481529060010190602001808311610ed057829003601f168201915b5050509183525050600382015463ffffffff8082166020840152640100000000820481166040840152600160401b9091048116606083015260048301546080830152600583015460a08301526006830154811660c0830152600783015460e0830152600890920154909116610100909101528351849084908110610f7357610f736146a7565b60200260200101819052508180610f899061468f565b9250505b600101610dc4565b50909392505050565b60605f548310610ff05760405162461bcd60e51b815260206004820152601960248201527f4f666673657420657863656564732067616d6520636f756e7400000000000000604482015260640161063e565b5f610ffb838561464a565b90505f5481111561100a57505f545b5f61101585836146bb565b90505f8167ffffffffffffffff81111561103157611031614167565b6040519080825280602002602001820160405280156110bd57816020015b60408051610180810182525f80825260208083018290529282018190526060808301526080820181905260a0820181905260c0820181905260e0820181905261010082018190526101208201819052610140820181905261016082015282525f1990920191018161104f5790505b5090505f5b828110156112625760015f6110d7838a61464a565b815260208082019290925260409081015f208151610180810183528154815260018201546001600160a01b03811694820194909452929091830190600160a01b900460ff16600381111561112d5761112d613eb0565b600381111561113e5761113e613eb0565b81526020016002820180546111529061465d565b80601f016020809104026020016040519081016040528092919081815260200182805461117e9061465d565b80156111c95780601f106111a0576101008083540402835291602001916111c9565b820191905f5260205f20905b8154815290600101906020018083116111ac57829003601f168201915b5050509183525050600382015463ffffffff8082166020840152640100000000820481166040840152600160401b9091048116606083015260048301546080830152600583015460a08301526006830154811660c0830152600783015460e083015260089092015490911661010090910152825183908390811061124f5761124f6146a7565b60209081029190910101526001016110c2565b50925050505b92915050565b61127883826132cc565b5f8381526008602052604090205480151580611292575080155b6112de5760405162461bcd60e51b815260206004820152601260248201527f496e76616c696420726571756573742049440000000000000000000000000000604482015260640161063e565b5f818152600160205260409020600681015463ffffffff908116908516101561152e575f828152600360205260408120805463ffffffff8716908110611326576113266146a7565b5f91825260208083209091015485835260078252604092839020805473ffffffffffffffffffffffffffffffffffffffff19166001600160a01b039092169182179055825160c081019093528583526002850180549194506009939283019161138e9061465d565b80601f01602080910402602001604051908101604052809291908181526020018280546113ba9061465d565b80156114055780601f106113dc57610100808354040283529160200191611405565b820191905f5260205f20905b8154815290600101906020018083116113e857829003601f168201915b50505091835250506001600160a01b038416602080830191909152600886015463ffffffff166040808401919091525f8881526006835290812054606084015242608090930192909252835460018181018655948352918190208351600590930201918255820151919290919082019061147f908261471a565b5060408281015160028301805460608601516001600160a01b039384167fffffffffffffffff00000000000000000000000000000000000000000000000090921691909117600160a01b63ffffffff92831602179091556080850151600385015560a090940151600490930192909255600885015490519216825282169084907f120eba8992697e6399d4d9bd8dcbf623fa400caba3e655718c4755d58e0f2d149060200160405180910390a3505b600101805460ff60a01b1916600160a11b1790555050505f90815260086020526040812055565b5f818152600160205260408120906001820154600160a01b900460ff16600381111561158357611583613eb0565b146115dc5760405162461bcd60e51b8152602060048201526024808201527f47616d65206973206e6f74206f70656e206f7220616c72656164792066696e696044820152631cda195960e21b606482015260840161063e565b80600501544210156116305760405162461bcd60e51b815260206004820152601b60248201527f446561646c696e6520686173206e6f7420706173736564207965740000000000604482015260640161063e565b600681015463ffffffff166116875760405162461bcd60e51b815260206004820152601660248201527f4e6f20706c617965727320696e207468652067616d6500000000000000000000604482015260640161063e565b611690826130d4565b5050565b6116b560405180606001604052805f81526020015f81526020015f81525090565b5f805f805b5f54811015611703575f8181526005602090815260408083206001600160a01b038a16845290915290205460ff16156116fb57836116f78161468f565b9450505b6001016116ba565b505f5b60095481101561179457856001600160a01b03166009828154811061172d5761172d6146a7565b5f9182526020909120600260059092020101546001600160a01b03160361178c57826117588161468f565b9350506009818154811061176e5761176e6146a7565b905f5260205f2090600502016003015482611789919061464a565b91505b600101611706565b506040805160608101825293845260208401929092529082015292915050565b600981815481106117c3575f80fd5b5f91825260209091206005909102018054600182018054919350906117e79061465d565b80601f01602080910402602001604051908101604052809291908181526020018280546118139061465d565b801561185e5780601f106118355761010080835404028352916020019161185e565b820191905f5260205f20905b81548152906001019060200180831161184157829003601f168201915b505050506002830154600384015460049094015492936001600160a01b03821693600160a01b90920463ffffffff1692509086565b60608060605f60098054905067ffffffffffffffff8111156118b7576118b7614167565b6040519080825280602002602001820160405280156118e0578160200160208202803683370190505b506009549091505f9067ffffffffffffffff81111561190157611901614167565b60405190808252806020026020018201604052801561192a578160200160208202803683370190505b506009549091505f9067ffffffffffffffff81111561194b5761194b614167565b604051908082528060200260200182016040528015611974578160200160208202803683370190505b5090505f805b600954811015611b35575f60098281548110611998576119986146a7565b5f91825260208220600260059092020101546001600160a01b0316915080805b85811015611a0657836001600160a01b03168982815181106119dc576119dc6146a7565b60200260200101516001600160a01b0316036119fe5760019250809150611a06565b6001016119b8565b508115611a8957868181518110611a1f57611a1f6146a7565b602002602001018051809190611a349061468f565b8152505060098481548110611a4b57611a4b6146a7565b905f5260205f20906005020160030154868281518110611a6d57611a6d6146a7565b60200260200101818151611a81919061464a565b905250611b2a565b82888681518110611a9c57611a9c6146a7565b60200260200101906001600160a01b031690816001600160a01b0316815250506001878681518110611ad057611ad06146a7565b60200260200101818152505060098481548110611aef57611aef6146a7565b905f5260205f20906005020160030154868681518110611b1157611b116146a7565b602090810291909101015284611b268161468f565b9550505b50505060010161197a565b505f881580611b4357508189115b611b4d5788611b4f565b815b90508067ffffffffffffffff811115611b6a57611b6a614167565b604051908082528060200260200182016040528015611b93578160200160208202803683370190505b5097508067ffffffffffffffff811115611baf57611baf614167565b604051908082528060200260200182016040528015611bd8578160200160208202803683370190505b5096508067ffffffffffffffff811115611bf457611bf4614167565b604051908082528060200260200182016040528015611c1d578160200160208202803683370190505b5095505f5b82811015611e14575f611c3682600161464a565b90505b83811015611e0b57858181518110611c5357611c536146a7565b6020026020010151868381518110611c6d57611c6d6146a7565b60200260200101511015611e03575f878381518110611c8e57611c8e6146a7565b60200260200101519050878281518110611caa57611caa6146a7565b6020026020010151888481518110611cc457611cc46146a7565b60200260200101906001600160a01b031690816001600160a01b03168152505080888381518110611cf757611cf76146a7565b60200260200101906001600160a01b031690816001600160a01b0316815250505f878481518110611d2a57611d2a6146a7565b60200260200101519050878381518110611d4657611d466146a7565b6020026020010151888581518110611d6057611d606146a7565b60200260200101818152505080888481518110611d7f57611d7f6146a7565b6020026020010181815250505f878581518110611d9e57611d9e6146a7565b60200260200101519050878481518110611dba57611dba6146a7565b6020026020010151888681518110611dd457611dd46146a7565b60200260200101818152505080888581518110611df357611df36146a7565b6020026020010181815250505050505b600101611c39565b50600101611c22565b505f5b81811015611ee257858181518110611e3157611e316146a7565b6020026020010151898281518110611e4b57611e4b6146a7565b60200260200101906001600160a01b031690816001600160a01b031681525050848181518110611e7d57611e7d6146a7565b6020026020010151888281518110611e9757611e976146a7565b602002602001018181525050838181518110611eb557611eb56146a7565b6020026020010151878281518110611ecf57611ecf6146a7565b6020908102919091010152600101611e17565b5050505050509193909250565b611ef7613d31565b5f548210611f475760405162461bcd60e51b815260206004820152601360248201527f47616d6520646f6573206e6f7420657869737400000000000000000000000000604482015260640161063e565b5f8281526001602090815260409182902082516101a0810190935280548352600281018054919392830191611f7b9061465d565b80601f0160208091040260200160405190810160405280929190818152602001828054611fa79061465d565b8015611ff25780601f10611fc957610100808354040283529160200191611ff2565b820191905f5260205f20905b815481529060010190602001808311611fd557829003601f168201915b505050918352505060018301546001600160a01b0381166020830152604090910190600160a01b900460ff16600381111561202f5761202f613eb0565b815260068084015463ffffffff9081166020808501919091526003860154600160401b81048316604080870191909152818416606087015264010000000090910483166080860152600487015460a0860152600587015460c08601525f8981529382528084205460e086015297835260079052959020546001600160a01b0316610100820152600890920154909316610120909101525090565b6004602052815f5260405f2081815481106120e2575f80fd5b905f5260205f20015f91509150505481565b60605f805b5f5481101561215c5783600381111561211457612114613eb0565b5f8281526001602081905260409091200154600160a01b900460ff16600381111561214157612141613eb0565b0361215457816121508161468f565b9250505b6001016120f9565b505f8167ffffffffffffffff81111561217757612177614167565b60405190808252806020026020018201604052801561220357816020015b60408051610180810182525f80825260208083018290529282018190526060808301526080820181905260a0820181905260c0820181905260e0820181905261010082018190526101208201819052610140820181905261016082015282525f199092019101816121955790505b5090505f805b5f54811015610be65785600381111561222457612224613eb0565b5f8281526001602081905260409091200154600160a01b900460ff16600381111561225157612251613eb0565b036123e5575f8181526001602081815260409283902083516101808101855281548152928101546001600160a01b038116928401929092529192830190600160a01b900460ff1660038111156122a9576122a9613eb0565b60038111156122ba576122ba613eb0565b81526020016002820180546122ce9061465d565b80601f01602080910402602001604051908101604052809291908181526020018280546122fa9061465d565b80156123455780601f1061231c57610100808354040283529160200191612345565b820191905f5260205f20905b81548152906001019060200180831161232857829003601f168201915b5050509183525050600382015463ffffffff8082166020840152640100000000820481166040840152600160401b9091048116606083015260048301546080830152600583015460a08301526006830154811660c0830152600783015460e08301526008909201549091166101009091015283518490849081106123cb576123cb6146a7565b602002602001018190525081806123e19061468f565b9250505b600101612209565b6003602052815f5260405f208181548110612406575f80fd5b5f918252602090912001546001600160a01b03169150829050565b61242b83826132cc565b5f8381526008602052604090205480151580612445575080155b6124915760405162461bcd60e51b815260206004820152601260248201527f496e76616c696420726571756573742049440000000000000000000000000000604482015260640161063e565b5f81815260016020526040902060088101805463ffffffff191663ffffffff8681169182179092556003830154640100000000900490911610156124e957600101805460ff60a01b1916600160a11b17905550505050565b5f6124f763ffffffff613052565b90505f61250386613052565b905061250e82613043565b5061251881613043565b505f5b600684015463ffffffff90811690821610156125a3575f61253b82613052565b905061254681613043565b505f8681526004602052604081208054612580919063ffffffff8616908110612571576125716146a7565b905f5260205f20015485613064565b905061258d818387613092565b945061259885613043565b50505060010161251b565b506125ad82613043565b506040805160018082528183019092525f916020808301908036833701905050905082815f815181106125e2576125e26146a7565b60209081029190910101525f6125f942600161464a565b86835f8151811061260c5761260c6146a7565b6020026020010151604051602001612637939291909283526020830191909152604082015260600190565b60408051601f1981840301815291815281516020928301205f81815260089093529120879055905061267082631f14abab60e11b613333565b50505050505050505050565b6009546060905f83158061268f57508184115b612699578361269b565b815b90505f8167ffffffffffffffff8111156126b7576126b7614167565b60405190808252806020026020018201604052801561272b57816020015b6127186040518060c001604052805f8152602001606081526020015f6001600160a01b031681526020015f63ffffffff1681526020015f81526020015f81525090565b8152602001906001900390816126d55790505b5090505f5b82811015612872576009816127466001876146bb565b61275091906146bb565b81548110612760576127606146a7565b905f5260205f2090600502016040518060c00160405290815f82015481526020016001820180546127909061465d565b80601f01602080910402602001604051908101604052809291908181526020018280546127bc9061465d565b80156128075780601f106127de57610100808354040283529160200191612807565b820191905f5260205f20905b8154815290600101906020018083116127ea57829003601f168201915b505050918352505060028201546001600160a01b0381166020830152600160a01b900463ffffffff16604082015260038201546060820152600490910154608090910152825183908390811061285f5761285f6146a7565b6020908102919091010152600101612730565b50949350505050565b5f81815260016020526040902060026001820154600160a01b900460ff1660038111156128aa576128aa613eb0565b146128f75760405162461bcd60e51b815260206004820152601860248201527f47616d65206973206e6f742066696e6973686564207965740000000000000000604482015260640161063e565b5f828152600760205260409020546001600160a01b0316331461295c5760405162461bcd60e51b815260206004820152601660248201527f596f7520617265206e6f74207468652077696e6e657200000000000000000000604482015260640161063e565b5f82815260066020526040902054806129c15760405162461bcd60e51b815260206004820152602160248201527f5072697a6520616c726561647920636c61696d6564206f72206e6f207072697a6044820152606560f81b606482015260840161063e565b5f8381526006602052604080822082905560018401805460ff60a01b19167403000000000000000000000000000000000000000017905551339083908381818185875af1925050503d805f8114612a33576040519150601f19603f3d011682016040523d82523d5f602084013e612a38565b606091505b5050905080612a895760405162461bcd60e51b815260206004820152601460248201527f4661696c656420746f2073656e64207072697a65000000000000000000000000604482015260640161063e565b604051828152339085907f4aa95f981a8337cb337de335b965507da0879c3b49f799d20058e913f5ad2c269060200160405180910390a350505050565b60605f805467ffffffffffffffff811115612ae357612ae3614167565b604051908082528060200260200182016040528015612b6f57816020015b60408051610180810182525f80825260208083018290529282018190526060808301526080820181905260a0820181905260c0820181905260e0820181905261010082018190526101208201819052610140820181905261016082015282525f19909201910181612b015790505b5090505f5b5f54811015612d05575f8181526001602081815260409283902083516101808101855281548152928101546001600160a01b038116928401929092529192830190600160a01b900460ff166003811115612bd057612bd0613eb0565b6003811115612be157612be1613eb0565b8152602001600282018054612bf59061465d565b80601f0160208091040260200160405190810160405280929190818152602001828054612c219061465d565b8015612c6c5780601f10612c4357610100808354040283529160200191612c6c565b820191905f5260205f20905b815481529060010190602001808311612c4f57829003601f168201915b5050509183525050600382015463ffffffff8082166020840152640100000000820481166040840152600160401b9091048116606083015260048301546080830152600583015460a08301526006830154811660c0830152600783015460e0830152600890920154909116610100909101528251839083908110612cf257612cf26146a7565b6020908102919091010152600101612b74565b50919050565b8515801590612d1b575060408611155b612d675760405162461bcd60e51b815260206004820152601860248201527f496e76616c696420726f6f6d206e616d65206c656e6774680000000000000000604482015260640161063e565b5f8563ffffffff16118015612d8757508463ffffffff168463ffffffff16115b612dd35760405162461bcd60e51b815260206004820152601460248201527f496e76616c6964206e756d6265722072616e6765000000000000000000000000604482015260640161063e565b60018363ffffffff1611612e295760405162461bcd60e51b815260206004820152601e60248201527f4d617820706c6179657273206d757374206265206174206c6561737420320000604482015260640161063e565b610100612e3686866147d6565b63ffffffff1610612e955760405162461bcd60e51b8152602060048201526024808201527f52616e676520697320746f6f206c6172676520666f7220656666696369656e746044820152632046484560e01b606482015260840161063e565b5f805490819080612ea58361468f565b90915550505f81815260016020819052604090912082815590810180547fffffffffffffffffffffff0000000000000000000000000000000000000000001660ff60a01b19331617905560028101612efe898b836147fa565b5060038101805463ffffffff878116600160401b026bffffffff0000000000000000198a83166401000000000267ffffffffffffffff19909416928c1692909217929092171617905560048101849055612f58834261464a565b6005820155612f70612f6b8760016148b4565b613052565b60078201819055612f8090613043565b50865b8663ffffffff168163ffffffff1611612fdc57612f9f5f613052565b5f84815260026020908152604080832063ffffffff861684529091529020819055612fc990613043565b5080612fd481614628565b915050612f83565b50336001600160a01b0316827f8b85e7bc59d35abbdb65efe36cd2f316a8d448bd4d71bd2a13d3a792e93785bc8b8b888a87600501546040516130239594939291906148d1565b60405180910390a3505050505050505050565b5f610cbb8383600461333f565b5f61304e823061344c565b5090565b5f6112688263ffffffff1660046134c2565b5f82613076576130735f613052565b92505b81613087576130845f613052565b91505b610cbb83835f613564565b5f61309e848484613634565b949350505050565b5f826130b8576130b55f613052565b92505b816130c9576130c65f613052565b91505b610cbb83835f6136ca565b5f818152600160208190526040808320909101805460ff60a01b1916600160a01b17905551339183917f4eccf1acaee8cc8d9d2c7f8f4e7f1bbcd3b0db47537ad7bd4694e8b54ce280a39190a35f8181526001602052604090206007810154600382015463ffffffff165b600383015463ffffffff6401000000009091048116908216116131fd575f6131676001613052565b90505f61317383613052565b905061317e82613043565b5061318881613043565b505f86815260026020908152604080832063ffffffff871684529091528120546131b29084613064565b90505f6131bf8387613754565b90505f6131cc8383613782565b90506131d9818589613092565b96506131e487613043565b50505050505080806131f590614628565b91505061313f565b506007820181905561320e81613043565b506040805160018082528183019092525f91602080830190803683375050506007840154909150815f81518110613247576132476146a7565b6020026020010181815250505f4285835f81518110613268576132686146a7565b6020026020010151604051602001613293939291909283526020830191909152604082015260600190565b60408051601f1981840301815291815281516020928301205f8181526008909352912086905590506109dd82633410e5f760e21b613333565b5f6132d6836137b0565b90505f6132e38284613881565b9050806133035760405163cf6c44e960e01b815260040160405180910390fd5b60405184907f1af0453083661051f6e56e5c070792320652e612154bf9af8637bb1e7655b99d905f90a250505050565b5f610cbb83835f613989565b7fed8d60e34876f751cc8b014c560745351147d9de11b9347c854e881b128ea6015460405163196d0b9b60e01b81525f915f80516020614a63833981519152916001600160a01b039091169063196d0b9b906133a590889033908990899060040161492c565b6020604051808303815f875af11580156133c1573d5f803e3d5ffd5b505050506040513d601f19601f820116820180604052508101906133e59190614962565b8154604051630f8e573b60e21b8152600481018390523360248201529193506001600160a01b031690633e395cec906044015f604051808303815f87803b15801561342e575f80fd5b505af1158015613440573d5f803e3d5ffd5b50505050509392505050565b5f5f80516020614a638339815191528054604051635ca4b5b160e11b8152600481018690526001600160a01b03858116602483015292935091169063b9496b62906044015f604051808303815f87803b1580156134a7575f80fd5b505af11580156134b9573d5f803e3d5ffd5b50505050505050565b7fed8d60e34876f751cc8b014c560745351147d9de11b9347c854e881b128ea60154604051639cd07acb60e01b81525f915f80516020614a63833981519152916001600160a01b0390911690639cd07acb906135249087908790600401614979565b6020604051808303815f875af1158015613540573d5f803e3d5ffd5b505050506040513d601f19601f8201168201806040525081019061309e9190614962565b5f8082156135775750600160f81b61357a565b505f5b7fed8d60e34876f751cc8b014c560745351147d9de11b9347c854e881b128ea6015460405163f77f3f1d60e01b815260048101879052602481018690526001600160f81b0319831660448201525f80516020614a63833981519152916001600160a01b03169063f77f3f1d906064015b6020604051808303815f875af1158015613606573d5f803e3d5ffd5b505050506040513d601f19601f8201168201806040525081019061362a9190614962565b9695505050505050565b5f805f80516020614a638339815191526001810154604051637702dcff60e01b81526004810188905260248101879052604481018690529192506001600160a01b031690637702dcff906064016020604051808303815f875af115801561369d573d5f803e3d5ffd5b505050506040513d601f19601f820116820180604052508101906136c19190614962565b95945050505050565b5f8082156136dd5750600160f81b6136e0565b505f5b7fed8d60e34876f751cc8b014c560745351147d9de11b9347c854e881b128ea6015460405163022f65e760e31b815260048101879052602481018690526001600160f81b0319831660448201525f80516020614a63833981519152916001600160a01b03169063117b2f38906064016135ea565b5f82613766576137635f613052565b92505b81613777576137745f613052565b91505b610cbb83835f613ac2565b5f82613794576137915f613b4c565b92505b816137a5576137a25f613b4c565b91505b610cbb83835f613b67565b5f8181527f5ea69329017273582817d320489fbd94f775580e90c092699ca6f3d12fdf7d0260205260408120546060917f5ea69329017273582817d320489fbd94f775580e90c092699ca6f3d12fdf7d009190036138215760405163d66ca67560e01b815260040160405180910390fd5b5f8381526002820160209081526040918290208054835181840281018401909452808452909183018282801561387457602002820191905f5260205f20905b815481526020019060010190808311613860575b5050505050915050919050565b5f60248161388e85613bf1565b90505f8167ffffffffffffffff8111156138aa576138aa614167565b6040519080825280601f01601f1916602001820160405280156138d4576020820181803683370190505b509050818360208301377fed8d60e34876f751cc8b014c560745351147d9de11b9347c854e881b128ea60254604051632c027b1360e21b81525f80516020614a63833981519152916001600160a01b03169063b009ec4c9061393e908a9086908b9060040161498d565b6020604051808303815f875af115801561395a573d5f803e3d5ffd5b505050506040513d601f19601f8201168201806040525081019061397e9190614a12565b979650505050505050565b7f5ea69329017273582817d320489fbd94f775580e90c092699ca6f3d12fdf7d01545f80516020614a638339815191528054604051637d6e912360e11b81527f5ea69329017273582817d320489fbd94f775580e90c092699ca6f3d12fdf7d0092916001600160a01b03169063fadd224690613a09908990600401614011565b5f604051808303815f87803b158015613a20575f80fd5b505af1158015613a32573d5f803e3d5ffd5b50508354604051633263b83b60e01b81526001600160a01b039091169250633263b83b91508690613a6b9087908b908b90600401614a31565b5f604051808303818588803b158015613a82575f80fd5b505af1158015613a94573d5f803e3d5ffd5b5050505050613aa38387613c9e565b600182018054905f613ab48361468f565b919050555050509392505050565b5f808215613ad55750600160f81b613ad8565b505f5b7fed8d60e34876f751cc8b014c560745351147d9de11b9347c854e881b128ea60154604051637210768160e01b815260048101879052602481018690526001600160f81b0319831660448201525f80516020614a63833981519152916001600160a01b0316906372107681906064016135ea565b5f61126882613b5b575f613b5e565b60015b60ff165f6134c2565b5f808215613b7a5750600160f81b613b7d565b505f5b7fed8d60e34876f751cc8b014c560745351147d9de11b9347c854e881b128ea6015460405163d99882d560e01b815260048101879052602481018690526001600160f81b0319831660448201525f80516020614a63833981519152916001600160a01b03169063d99882d5906064016135ea565b80515f9081805b82811015613c92575f858281518110613c1357613c136146a7565b6020026020010151601e60208110613c2d57613c2d6146a7565b1a6053811115613c3f57613c3f613eb0565b90506009816053811115613c5557613c55613eb0565b60ff161015613c7057613c6960208461464a565b9250613c89565b60405163ce54a8d160e01b815260040160405180910390fd5b50600101613bf8565b5061309e60208261464a565b5f8281527f5ea69329017273582817d320489fbd94f775580e90c092699ca6f3d12fdf7d0260205260409020547f5ea69329017273582817d320489fbd94f775580e90c092699ca6f3d12fdf7d009015613d0b57604051633f06d22b60e01b815260040160405180910390fd5b5f83815260028201602090815260409091208351613d2b92850190613db1565b50505050565b604051806101a001604052805f8152602001606081526020015f6001600160a01b031681526020015f6003811115613d6b57613d6b613eb0565b81525f6020820181905260408201819052606082018190526080820181905260a0820181905260c0820181905260e0820181905261010082018190526101209091015290565b828054828255905f5260205f20908101928215613dea579160200282015b82811115613dea578251825591602001919060010190613dcf565b5061304e9291505b8082111561304e575f8155600101613df2565b5f8083601f840112613e15575f80fd5b50813567ffffffffffffffff811115613e2c575f80fd5b602083019150836020828501011115613e43575f80fd5b9250929050565b5f805f8060608587031215613e5d575f80fd5b8435935060208501359250604085013567ffffffffffffffff811115613e81575f80fd5b613e8d87828801613e05565b95989497509550505050565b5f60208284031215613ea9575f80fd5b5035919050565b634e487b7160e01b5f52602160045260245ffd5b60048110613ed457613ed4613eb0565b9052565b5f81518084525f5b81811015613efc57602081850181015186830182015201613ee0565b505f602082860101526020601f19601f83011685010191505092915050565b5f6101808e83526001600160a01b038e166020840152613f3e604084018e613ec4565b806060840152613f508184018d613ed8565b63ffffffff9b8c166080850152998b1660a0840152505095881660c087015260e0860194909452610100850192909252851661012084015261014083015290921661016090920191909152949350505050565b80356001600160a01b0381168114613fb9575f80fd5b919050565b5f60208284031215613fce575f80fd5b610cbb82613fa3565b5f815180845260208085019450602084015f5b8381101561400657815187529582019590820190600101613fea565b509495945050505050565b602081525f610cbb6020830184613fd7565b5f60208083018184528085518083526040925060408601915060408160051b8701018488015f5b8381101561412657603f19898403018552815180518452878101516001600160a01b031688850152868101516101809061408689870182613ec4565b50606080830151828288015261409e83880182613ed8565b925050506080808301516140b98288018263ffffffff169052565b505060a08281015163ffffffff9081169187019190915260c08084015182169087015260e08084015190870152610100808401519087015261012080840151821690870152610140808401519087015261016092830151169190940152938601939086019060010161404a565b509098975050505050505050565b5f8060408385031215614145575f80fd5b50508035926020909101359150565b803563ffffffff81168114613fb9575f80fd5b634e487b7160e01b5f52604160045260245ffd5b604051601f8201601f1916810167ffffffffffffffff811182821017156141a4576141a4614167565b604052919050565b5f805f606084860312156141be575f80fd5b8335925060206141cf818601614154565b925060408086013567ffffffffffffffff808211156141ec575f80fd5b818801915088601f8301126141ff575f80fd5b81358181111561421157614211614167565b8060051b61422086820161417b565b918252838101860191868101908c841115614239575f80fd5b87860192505b838310156142c057823585811115614255575f80fd5b8601603f81018e13614265575f80fd5b888101358681111561427957614279614167565b61428b601f8201601f19168b0161417b565b8181528f8a83850101111561429e575f80fd5b818a84018c8301375f9181018b0191909152835250918701919087019061423f565b80985050505050505050509250925092565b86815260c060208201525f6142ea60c0830188613ed8565b90506001600160a01b038616604083015263ffffffff851660608301528360808301528260a0830152979650505050505050565b606080825284519082018190525f906020906080840190828801845b8281101561435f5781516001600160a01b03168452928401929084019060010161433a565b50505083810360208501526143748187613fd7565b915050828103604084015261362a8185613fd7565b5f806040838503121561439a575f80fd5b823591506143aa60208401614154565b90509250929050565b60208152815160208201525f60208301516101a08060408501526143db6101c0850183613ed8565b915060408501516143f760608601826001600160a01b03169052565b50606085015161440a6080860182613ec4565b50608085015163ffffffff811660a08601525060a085015163ffffffff811660c08601525060c085015163ffffffff811660e08601525060e085015161010061445a8187018363ffffffff169052565b860151610120868101919091528601516101408087019190915286015161016080870191909152860151905061018061449d818701836001600160a01b03169052565b86015163ffffffff8116838701529050610be6565b5f602082840312156144c2575f80fd5b813560048110610cbb575f80fd5b5f60208083018184528085518083526040925060408601915060408160051b8701018488015f5b8381101561412657603f19898403018552815160c08151855288820151818a87015261452582870182613ed8565b838a01516001600160a01b0316878b015260608085015163ffffffff16908801526080808501519088015260a0938401519390960192909252505093860193908601906001016144f7565b5f805f805f805f60c0888a031215614586575f80fd5b873567ffffffffffffffff81111561459c575f80fd5b6145a88a828b01613e05565b90985096506145bb905060208901614154565b94506145c960408901614154565b93506145d760608901614154565b92506080880135915060a0880135905092959891949750929550565b5f8060408385031215614604575f80fd5b823591506143aa60208401613fa3565b634e487b7160e01b5f52601160045260245ffd5b5f63ffffffff80831681810361464057614640614614565b6001019392505050565b8082018082111561126857611268614614565b600181811c9082168061467157607f821691505b602082108103612d0557634e487b7160e01b5f52602260045260245ffd5b5f600182016146a0576146a0614614565b5060010190565b634e487b7160e01b5f52603260045260245ffd5b8181038181111561126857611268614614565b601f82111561471557805f5260205f20601f840160051c810160208510156146f35750805b601f840160051c820191505b81811015614712575f81556001016146ff565b50505b505050565b815167ffffffffffffffff81111561473457614734614167565b61474881614742845461465d565b846146ce565b602080601f83116001811461477b575f84156147645750858301515b5f19600386901b1c1916600185901b1785556109dd565b5f85815260208120601f198616915b828110156147a95788860151825594840194600190910190840161478a565b50858210156147c657878501515f19600388901b60f8161c191681555b5050505050600190811b01905550565b63ffffffff8281168282160390808211156147f3576147f3614614565b5092915050565b67ffffffffffffffff83111561481257614812614167565b61482683614820835461465d565b836146ce565b5f601f841160018114614857575f85156148405750838201355b5f19600387901b1c1916600186901b178355614712565b5f83815260208120601f198716915b828110156148865786850135825560209485019460019092019101614866565b50868210156148a2575f1960f88860031b161c19848701351681555b505060018560011b0183555050505050565b63ffffffff8181168382160190808211156147f3576147f3614614565b60808152846080820152848660a08301375f60a086830101525f60a0601f19601f880116830101905084602083015263ffffffff841660408301528260608301529695505050505050565b60548110613ed457613ed4613eb0565b8481526001600160a01b0384166020820152608060408201525f6149536080830185613ed8565b90506136c1606083018461491c565b5f60208284031215614972575f80fd5b5051919050565b82815260408101610cbb602083018461491c565b606081525f61499f6060830186613fd7565b6020838203818501526149b28287613ed8565b915083820360408501528185518084528284019150828160051b8501018388015f5b83811015614a0257601f198784030185526149f0838351613ed8565b948601949250908501906001016149d4565b50909a9950505050505050505050565b5f60208284031215614a22575f80fd5b81518015158114610cbb575f80fd5b838152606060208201525f614a496060830185613fd7565b905063ffffffff60e01b8316604083015294935050505056feed8d60e34876f751cc8b014c560745351147d9de11b9347c854e881b128ea600a164736f6c6343000818000a",
  "linkReferences": {},
  "deployedLinkReferences": {}
}